:020000021000EC
:10200000000001203922010091220100D53B01008E
:102010009522010097220100992201000000000092
:102020000000000000000000000000009B220100F2
:102030009D220100000000009F220100A12201005A
:10204000A5220100A7220100A9220100AB22010064
:10205000AD220100AF220100014B0100514F0100F0
:10206000B5220100B7220100B9220100BB22010004
:10207000BD220100BF220100C1220100C3220100D4
:10208000C522010031380100C9220100CB22010024
:1020900071380100CF2201006D670100D3220100D9
:1020A000D5220100D7220100D9220100DB22010044
:1020B000DD220100DF220100A3220100A322010092
:1020C000E1220100E3220100E5220100E7220100F4
:0C20D000E9220100EB220100ED220100DA
:1020DC00354936480A1A02D0072291438D463449B5
:1020EC0034480A1A06D00722914381F30988022248
:1020FC0082F3148830483149314A00F044F83148B1
:10210C003149324A00F03FF831483249324A00F046
:10211C003AF832483249334A00F035F832483349FC
:10212C00334A00F030F833483349344A00F02BF886
:10213C0033483449344A00F026F8344834490022F4
:10214C0000F02CF833483449002200F027F83348CB
:10215C003349091A082902DB002202604160314A26
:10216C0090471F481F49884205D00268043003B4C9
:10217C00904703BCF7E700208646EC460020002180
:10218C00294A9047FEE7884207D0521A05D00378B7
:10219C0001300B700131013AF9D17047884202D0FD
:1021AC0002700130FAE770470000012000F80020AF
:1021BC000000012000000120487D0100E00B002000
:1021CC00500C0020F0220100F022010010690100E7
:1021DC00487D0100E00B0020E00B0020C0690100ED
:1021EC00C0690100C0690100C0690100C06901003B
:1021FC00C0690100C0690100C0690100487D01008F
:10220C00B87D0100500C0020500C0020500C002018
:10221C002014002020140020201400202014002062
:10222C00201600205D2201001D5C01000F484FF0BC
:10223C000701884385460E4880470E48016841F4E3
:10224C0070010160BFF34F8FBFF36F8FFFF740BF7B
:10225C0009480A490A4A884207D0521A05D003781D
:10226C0001300B700131013AF9D1704700000120A7
:10227C00795D010088ED00E060690100800B0020B1
:10228C00E00B0020FEE7FEE7FEE7FEE7FEE7FEE7D9
:10229C00FEE7FEE7FEE7FEE7FEE7FEE7FEE7FEE70A
:1022AC00FEE7FEE7FEE7FEE7FEE7FEE7FEE7FEE7FA
:1022BC00FEE7FEE7FEE7FEE7FEE7FEE7FEE7FEE7EA
:1022CC00FEE7FEE7FEE7FEE7FEE7FEE7FEE7FEE7DA
:1022DC00FEE7FEE7FEE7FEE7FEE7FEE7FEE7FEE7CA
:0422EC00FEE700BF4A
:1022F00000B583B001900091019B1B681B68009999
:102300000198984700BF03B05DF804FB00B583B0A7
:102310000190019B1B685B680198984700BF03B060
:102320005DF804FB82B00190019B01225A7200BF4C
:1023300002B0704782B00190019B5B7A184602B0F0
:10234000704710B487B001900091019B009A53E848
:10235000004F44EA020043E8000191F0000FF6D17B
:10236000059404900391049B184607B05DF8044B54
:10237000704710B487B001900091019B009A53E818
:10238000004F04EA020043E8000191F0000FF6D18B
:10239000059404900391059B184607B05DF8044B23
:1023A000704700B583B0019001210198FFF7C9FF84
:1023B0000346184603B05DF804FB00B583B00190F6
:1023C00000210198FFF7D5FF0346184603B05DF8DA
:1023D00004FB000000B587B001901F4BFF229A60FC
:1023E0001D4B00221A601C4B00225A601A4B00221F
:1023F000C3F81824184B0022C3F81424164B0022EB
:1024000083F81C24154801F02FFE0490049B002B38
:1024100001D0049B1CE0124A124BD31ADB08039331
:10242000002305930FE0059A13465B0013449B00BD
:102430001A460D4B13440293059B9AB2029B1A80D5
:10244000059B01330593059A039B9A42EBD3002326
:10245000184607B05DF804FB200D0020C06901009C
:102460005869010018690100800B0020024A034BE3
:10247000D31ADB0818467047586901001869010033
:1024800000B589B04148FFF78CFF4148FFF789FF4D
:10249000404B5B6807933F4B9B680493079A049BF0
:1024A000134002339B003B4A1344043306931BE062
:1024B000079B01330793069B5B88C3F389139BB289
:1024C0001A46069B1B88C3F389139BB213441A4612
:1024D000079B13440793079A049B134002339B0006
:1024E0002C4A134404330693069B1B7803F0030322
:1024F000DBB2002BDCD00023059311E0079B5A1CB4
:102500000792049A1340059A920069460A442149A9
:1025100002339B000B445B681360059B01330593FA
:10252000059B012BEAD99DF80030C3F30103DBB210
:10253000012B0CD0022B14D1BDF80230C3F3891348
:102540009BB203339B08079A134407930FE0BDF82F
:102550000030C3F38313DBB21A46079B134407937F
:1025600005E00D4940F24D1001F02CFC00BF084879
:10257000FFF723FF0390039B002B02D0054A079B24
:10258000536000BF09B05DF804FB00BF38110020A4
:1025900034110020200D0020E469010010B586B040
:1025A0000390029101920093039B1B0CADF816302F
:1025B000BDF81640FFF75AFF03469C4204D3234957
:1025C0004FF4B27001F0FEFB009B5A1C089B1340B5
:1025D000BDF816201E4902339B000B445A60009A36
:1025E000089B134002339B00194A1344043304939D
:1025F000039B1B0903F00103D9B2049A137861F31A
:1026000082031370039B03F00703D9B2049A137873
:1026100061F3C5031370019B03F00F03D9B2049A51
:10262000138861F389131380029BC3F31501049A85
:10263000136861F39F231360049A1378012161F3F7
:102640000103137000BF06B010BD00BFE4690100B4
:10265000200D002000B58BB001900091019B02334A
:1026600008930223079301238DF81B3000238DF874
:102670000F300DF10F03184601F042FA214B1A6892
:10268000009B1A601F4B9A681E4B59681D4B1B68B4
:10269000CB1A134401330993089A079B13440593FB
:1026A0000BE0FFF7EDFE174B9A68164B5968154B78
:1026B0001B68CB1A134401330993059A099B9A426C
:1026C000EFD8104B1A680F4B9B68134002339B00E6
:1026D0000C4A134404330493049A137843F003031D
:1026E0001370084B1A68089B1344064A13609DF840
:1026F0000F30184601F01AFA9DF81B3018460BB03F
:102700005DF804FB200D002000B58BB0059004910E
:10271000039202931F4B9B68079306AB19460298DE
:10272000FFF798FF0346002B24D0069B0233099342
:102730000023089311E0089B9B00039A1A44099B0D
:10274000591C099107990B401268124902339B00EA
:102750000B445A60089B01330893089A029B9A42E3
:10276000E9D3069A079B00931346029A04990598A9
:10277000FFF714FF074B93F81C34002B05D000BF64
:1027800000F07AF80346002BFAD100BF0BB05DF8D9
:1027900004FB00BF200D002000B583B00190009124
:1027A0000023002200990198FFF7AEFF00BF03B09D
:1027B0005DF804FB00B587B0039002910192019B84
:1027C000059305AA012302990398FFF79DFF00BF17
:1027D00007B05DF804FB00B587B003900291019249
:1027E0000093019B0493009B059304AA0223029982
:1027F0000398FFF789FF00BF07B05DF804FB00B541
:1028000089B00390029101920093019B0593009B74
:1028100006930A9B079305AA032302990398FFF7DF
:1028200073FF00BF09B05DF804FB00B589B00390E9
:10283000029101920093019B0493009B05930A9BD4
:1028400006930B9B079304AA042302990398FFF7AE
:102850005BFF00BF09B05DF804FB0000054B5A6840
:10286000044B1B689A420CBF01230023DBB21846BD
:10287000704700BF200D002000B599B0FFF7EEFFB4
:102880000346002B01D00023B3E19C4B0022C3F888
:102890001824BFF34F8F00BF984B5B681793974B7B
:1028A0009B681093179A109B134002339B00934A26
:1028B0001344043316930023159300231493002329
:1028C0000F931BE0179B01331793169B5B88C3F391
:1028D00089139BB21A46169B1B88C3F389139BB2BC
:1028E00013441A46179B13441793179A109B1340CF
:1028F00002339B00814A134404331693169B1B78C2
:1029000003F00303DBB2002BDCD00023139311E0B0
:10291000179B5A1C1792109A1340139A920002A9FF
:102920000A44764902339B000B445B681360139B97
:1029300001331393139B012BEAD99DF8083003F060
:102940000303DBB2022B40F09C80BDF80A30C3F3D6
:1029500089139BB20D93BDF80A30C3F389139BB260
:10296000502B28BF50239BB20C930C9BC3F309033D
:102970009AB2BDF80A3062F38F13ADF80A300C9B9F
:1029800008330B939DF80830C3F3C203DBB20F93F7
:102990000B995B4801F073FB1590159B002B00F021
:1029A000E080159801F0FCFB02A9149B0822159801
:1029B00001F0A2FC149B08331493179BDA43109B7D
:1029C000134001339B000A930C9A0A9B9A4242D906
:1029D0000A9B002B08D0179A109B134002339B00D0
:1029E000464A1344043300E0464B08930A9B002BED
:1029F00002D00A9BDBB201E00C9BDBB28DF81F30EA
:102A00000A9B002B01D03F4B00E0002306930A9B5A
:102A1000002B06D00C9BDAB20A9BDBB2D31ADBB2D6
:102A200000E000238DF817309DF81F20149B0899B3
:102A3000159801F061FC9DF81F30149A134414930B
:102A4000069B002B16D09DF81720149B069915980D
:102A500001F052FC0EE0179A109B134002339B00CA
:102A6000264A134404330993149B0C9A0999159828
:102A700001F042FC0D9B03339B08179A13441793F4
:102A80006FE09DF8083003F00303DBB2012B5AD14D
:102A9000BDF80830C3F38313DBB2062B28BF06232F
:102AA000DAB2BDF8083062F38913ADF80830BDF82A
:102AB0000830C3F38313DBB202330E939DF8083062
:102AC000C3F3C203DBB20F930E9B9B0019460C4865
:102AD00001F0D5FA1590159B002B42D0159801F006
:102AE0005FFB02A9149B0822159801F005FC149BBA
:102AF00008331493002313931BE000BF200D002024
:102B0000C06901002C0D0020179B5A1C1792109AC7
:102B1000134002339B00394A1344191D149B0422AD
:102B2000159801F0E9FB149B04331493139B0133B4
:102B30001393BDF80830C3F38313DBB21A46139B1B
:102B40009342E1D30DE09DF8083003F00303DBB2BC
:102B5000032B06D1294BD3F81834002B01D10023C5
:102B600047E0159B002B3ED0244BD3F81034129332
:102B7000224BD3F81834002B1AD0159801F01FFB04
:102B800031E000238DF847301298FFF7D3FB03465E
:102B9000002B02D001238DF847309DF84730002BE1
:102BA00003D015991298FFF7A3FB129B5B68129351
:102BB000129B002BE5D1159801F001FB00238DF845
:102BC00007300DF10703184600F09AFF0B4BD3F8BE
:102BD0001834002B02D1094A179B53609DF8073027
:102BE000184600F0A3FFFFF739FE034683F0010308
:102BF000DBB2184619B05DF804FB00BF200D0020C1
:102C000000B583B00C4BD3F8103401930A4B01226A
:102C100083F81C2408E00198FFF784FB0198FFF774
:102C200075FB019B5B680193019B002BF3D100BFF7
:102C300000BF03B05DF804FB200D002000B589B093
:102C4000039002910192029B9BB2ADF81430019B5C
:102C50000693039B079305AB1A46002144F201003B
:102C600000F052F800BF09B05DF804FB86B0039095
:102C70000291019201238DF817309DF81730214AF7
:102C8000039B13601F4A029B53601E4A019B936083
:102C9000039B44F20102934213D0039B44F20202CD
:102CA000934222D1019B174AD360164BDB681B88E5
:102CB0001A46144B9A61134BDB685B68114AD36167
:102CC00013E0019B0F4A13610E4B1B699B680D4A71
:102CD00053610C4B1B691B881A460A4B9A61094BBE
:102CE0001B695B68074AD36100BF72B600BF00BFB3
:102CF0009DF81730DBB2002BFAD162B600BF00BFDF
:102D000006B070474011002030B589B0059004919D
:102D10000392FFF775FF00BFFFF7AEFD0346002BE0
:102D2000FAD1059B44F2020293422BD0059B44F258
:102D30000202934254D8059B44F20102934231D0DF
:102D4000059B44F2010293424AD8059B012B05D012
:102D5000059B41F2010293420AD041E02D4B1B88B2
:102D60001B0443F001032C491846FFF715FD42E010
:102D7000284B1B881B0443F0010328491846FFF722
:102D80000BFD38E0039B0793224B1B881B0443F089
:102D90000100079B5B681A46079B1B882049FFF7C9
:102DA0001AFD28E0039B06931A4B1B881B0443F073
:102DB0000104069B9D68069B9B68184601F072FC07
:102DC00003461946069B5B681A46069B1B880193BF
:102DD00000920B462A4613492046FFF726FD0AE0DB
:102DE0000C4B1B881B0443F00103049A0E49184640
:102DF000FFF7E0FC00BF0D4B1B6803F00103002B45
:102E000000D0FFDE039A04990598FFF72FFF00BF5B
:102E100009B030BD800B0020506A0100706A0100CB
:102E2000946A0100B06A0100C86A0100F0ED00E098
:102E300082B003468DF807309DF8073003F01F027B
:102E400005499DF907305B09012000FA02F241F8BB
:102E5000232000BF02B0704700E100E082B00346CB
:102E60008DF807309DF8073003F01F0206499DF9E1
:102E700007305B09012000FA02F2203341F82320D9
:102E800000BF02B0704700BF00E100E082B003461F
:102E90008DF807309DF8073003F01F0206499DF9B1
:102EA00007305B09012000FA02F2403341F8232089
:102EB00000BF02B0704700BF00E100E082B00346EF
:102EC0008DF807309DF8073003F01F0206499DF981
:102ED00007305B09012000FA02F2603341F8232039
:102EE00000BF02B0704700BF00E100E082B00346BF
:102EF00000918DF807309DF90730002B0CDA009B0C
:102F0000DAB20C499DF8073003F00F03043B52017D
:102F1000D2B20B441A7609E0009BDAB206499DF959
:102F200007305201D2B20B4483F8002300BF02B035
:102F3000704700BF00ED00E000E100E084B00190C8
:102F4000244B0393019B002B40D0234B1A68039919
:102F5000019B00BF00BF00BF00BF00BF00BF00BF9C
:102F600000BF8A422FD000BF00BF00BF00BF00BF1C
:102F700000BF00BF00BF00BF00BF00BF00BF00BF59
:102F800000BF00BF00BF00BF00BF00BF00BF00BF49
:102F900000BF00BF00BF00BF00BF00BF00BF00BF39
:102FA00000BF00BF00BF00BF00BF00BF00BF00BF29
:102FB00000BF00BF00BF00BF00BF00BF00BF00BF19
:102FC00000BF00BF00BF013BC3D1019300BF04B0ED
:102FD000704700BF0024F4004C0C002000B583B003
:102FE0000190064A019BC2F8083507211120FFF71E
:102FF0007DFF00BF03B05DF804FB00BF001001407F
:1030000008B50D4B4FF48032C3F844230A4B4FF4FC
:103010008032C3F804231120FFF750FF1120FFF77F
:1030200007FF054B01221A602F20FFF787FF034B94
:1030300001221A7000BF08BD001001407E1200205E
:1030400008B51120FFF70AFF0E4B4FF48032C3F88A
:1030500048230C4B4FF48032C3F80823094B01225C
:103060005A602F20FFF76AFF064B01229A60064B39
:1030700000221A602F20FFF761FF044B00221A7014
:1030800000BF08BD00100140701200207E12002019
:10309000024BD3F804351846704700BF00100140BA
:1030A00082B001900091019A009BD31A23F07F43D4
:1030B000184602B07047000082B00190034A019B9D
:1030C000C2F8403500BF02B0704700BF0010014099
:1030D00086B00190284B1B68002B03D1264A019B28
:1030E000136045E0019B1A68234B1B681B689A42DA
:1030F00010D8214B1B681968019B1A681E4B1B686E
:103100008A1A1A601C4B1A68019BDA611A4A019BE1
:1031100013602DE0019B1B680393174B1B680593FD
:10312000154B1B68049309E0049B1B68039AD31A90
:103130000393049B0593049BDB690493049B002B7E
:1031400004D0049B1B68039A9A42EDD8049B002B81
:1031500005D0049B1A68039BD21A049B1A60019B3A
:10316000039A1A60019B049ADA61059B019ADA615D
:1031700000BF06B0704700BF6C12002000B587B0DA
:1031800001902A4B1B680393284B1B680593059BF2
:10319000049308E0049A019B9A4208D0049B05938B
:1031A000049BDB690493049B002BF3D100E000BF78
:1031B000049B002B01D1002333E0059A049B9A4223
:1031C00014D11A4B1B68DB69184A1360174B1B6834
:1031D000002B0BD1164B01229A60164B00221A606D
:1031E000154B01221A702F20FFF7A8FE049B1B68C5
:1031F0000293049BDA69059BDA61059BDB69049302
:10320000049B002B05D0049B1A68029B1A44049B64
:103210001A60064B1B68039A9A4214BF01230023CD
:10322000DBB2184607B05DF804FB00BF6C1200204B
:1032300000100140701200207F12002008B51120FC
:10324000FFF724FE00BF08BD08B51420FFF71EFEDF
:1032500000BF08BD00B583B00190019B5B69019A76
:1032600092691046984700BF03B05DF804FB000068
:1032700000B585B02B4B1B68002B4ED0002301936B
:10328000FFF706FF0246284B1B6819461046FFF75A
:1032900007FF0290234B1B6803931DE0039B1B68F1
:1032A000029A9A421CD3039B1B68029AD31A029378
:1032B000039B1B68019A13440193039B0093039B98
:1032C000DB690393009B1B7C002B05D0009B002235
:1032D0001A740098FFF7BEFF039B002BDED100E0BD
:1032E00000BF124B1A78124B1B789A420CD1104B2C
:1032F0001B780133DAB20E4B1A700D4B1B78022B80
:1033000002D10B4B00221A70094B1B781946094A4F
:10331000019B42F82130FFF797FF00BF05B05DF831
:1033200004FB00BF6C120020701200207C120020F1
:103330007D1200207412002082B00190184B1A7880
:10334000184B1B789A4223D0154B1B780133DAB205
:10335000134B1A70124B1B78022B02D1104B002218
:103360001A700F4B1B781A460F4B53F82220019B03
:103370001A60019B1A680D4B1B6813440B4A1360BB
:103380000A4B1B6823F07F43084A1360012303E0C4
:10339000019B00221A600023184602B0704700BF4C
:1033A0007C1200207D120020741200207012002078
:1033B00088B00390029101920023079338E0204BDC
:1033C0001B680693069B1B68039A9A4206D2069BCB
:1033D0001A68039BD21A069B1A602EE0069B1B6894
:1033E000039AD31A0393069B1B68079A1344079307
:1033F000069B00221A60124B1B680593069BDB6933
:103400000F4A1360069BDB68002B11D0029A079BC2
:10341000134423F07F42069B5A60069BDA68069BA2
:103420009A60019B1A68069BDA61019B059A1A60F3
:10343000034B1B68002BC2D100BF00BF08B0704710
:103440006C12002000B589B0019000238DF81F3068
:10345000664B1B680593AAE0019B002B05D0019BDE
:103460000693069BDB69019361E0614B1B781A466A
:1034700013465B001344DB005D4A1344043304939A
:103480005B4B1B780133DAB2594B1A70584B1A78E0
:10349000574B9B789A4202D1554B00221A70049BDD
:1034A0005B680693049B1B78032B1ED0032B7EDCEA
:1034B000012B1FD0022B7AD1049B5B681846FFF7C3
:1034C0005DFE0346002B02D001238DF81F30069BC2
:1034D00000221A746BE0454B1B680393039B002288
:1034E0001A74039BDB69414A1360404B1B68002B35
:1034F000F1D15CE000BF069B1B7C002B00D056E0A6
:10350000049B9A68069B5A60049BDA68069B9A6043
:10351000049B1A69069BDA60049B5A69069B9A61B0
:10352000344B1B78002B02D0069B00225A60069B6E
:103530005A68314B1B68D31A23F07F432F4A9342BA
:103540000ED8069B5B682C4A126811461846FFF796
:10355000A7FD0246069B9B681A44069B1A6017E06B
:10356000254B1A68069B5B6819461046FFF798FDC5
:103570000290069B9B68029A9A4206D2069B9A6822
:10358000029BD21A069B1A6002E0069B00221A6078
:10359000069B00225A60069B00229A60069B01222D
:1035A0001A74069B0022DA610698FFF791FD019BD1
:1035B000002B7FF451AF0E4B1A780D4B5B789A427B
:1035C0007FF44AAF9DF81F30002B04D1074B1B68D6
:1035D000059A9A4201D0012300E0002303F0010381
:1035E000DBB2184609B05DF804FB00BF6C12002086
:1035F000601100207F12002070120020FEFF7F006B
:1036000010B588B00190274B1B68002B44D0254B88
:103610001B681B680793FFF73BFD0690224B1B6856
:10362000059305990698FFF73BFD03460333049382
:103630001E4B1B7883F00103DBB2002B01D0FFF798
:10364000DFFC049A079B934238BF1346059A134444
:103650000593059B23F07F4305930598FFF72CFD09
:10366000FFF716FD039006990398FFF719FD03462F
:10367000DC1C06990598FFF713FD03469C420DD903
:10368000FFF706FD03461846FFF716FD2F20FFF74C
:1036900055FCFFF7D3FD01E0FFF7D2FC00BF08B0F7
:1036A00010BD00BF6C120020701200207E1200209E
:1036B00000B587B00023019300238DF81730194B14
:1036C0001B680493184B1B6803936B461846FFF75F
:1036D00033FE03468DF80B309DF80B30002B08D0DD
:1036E000009B01AA04991846FFF762FE01238DF89A
:1036F0001730019B1846FFF7A5FE0346002B02D0AA
:1037000001238DF817309DF81730002B02D0039855
:10371000FFF776FF054B00221A7000BF07B05DF877
:1037200004FB00BF701200206C1200207F120020EA
:1037300082B003468DF80730034A9DF80730537076
:1037400000BF02B0704700BF6011002084B001903C
:10375000144B5B7801338DF80F30124B9B789DF83A
:103760000F209A4202D100238DF80F300D4B1B78A9
:103770009DF80F209A4201D100230FE0019B9DF894
:103780000F201A70074B5B781A4613465B001344F0
:10379000DB00044A134404330293029B184604B02E
:1037A000704700BF6011002000B589B003900291FE
:1037B000019200930023079300238DF816300DF13A
:1037C0001603184600F09CF90DF117031846FFF791
:1037D000BDFF0690069B002B02D10423079318E03F
:1037E000069B01221A70069B039A5A60FFF750FC51
:1037F0000246069B9A60069B029ADA60069B019A33
:103800001A61069B009A5A619DF817301846FFF717
:103810008FFF9DF81630184600F088F9079B002BA3
:1038200001D1FFF711FD079B184609B05DF804FBB5
:1038300008B50E4B0022C3F840210C4B0022C3F800
:1038400044210A4B0022C3F84821084B0022C3F848
:103850004C21064B0022C3F80021044B0022C3F880
:103860000421FFF705FD00BF08BD00BF00100140A7
:1038700008B5FFF71DFF00BF08BD000008B5FFF742
:10388000DFFB134B00221A70114B00225A70104BB1
:103890000B229A700F4B00221A600F4B00221A70F5
:1038A0000E4B00221A701420FFF708FB072114208A
:1038B000FFF71CFB1420FFF7BBFA0020FFF78EFB7D
:1038C000FFF7E6FB0346064A13600023184608BDCF
:1038D000601100206C1200207C1200207D1200205C
:1038E0007012002086B003900B4601928DF80B30C9
:1038F000134B9B78002B01D108231EE0019B002B6A
:1039000001D1072319E0039B002B01D1072314E009
:10391000039B1B681B7C002B01D008230DE0039B3D
:103920001B680593059B00221A74059B9DF80B20CC
:103930005A74059B019A5A610023184606B07047D5
:103940006011002000B587B0039002910192039BA3
:103950000593144B9B78002B01D108231EE0039B99
:10396000002B01D1082319E0029B042B01D8072367
:1039700014E0059B5B69002B01D108230EE0059B39
:103980005B7C012B01D1029B00E000230493019B8F
:10399000049A02990598FFF707FF0346184607B0F7
:1039A0005DF804FB6011002008B5FFF771FB0346CA
:1039B000184608BD00B583B00190009100990198A8
:1039C000FFF76EFB0346184603B05DF804FB0000EA
:1039D00082B003468DF807309DF90730002B0BDAD3
:1039E0000B4A9DF8073003F00F03043B13441B7E82
:1039F000DBB25B09DBB208E0064A9DF907301344ED
:103A000093F80033DBB25B09DBB2184602B07047B3
:103A100000ED00E000E100E082B0EFF310830093DE
:103A2000009B019372B600BF019B184602B070471D
:103A300062B600BF00BF704700B585B00190FFF7C8
:103A4000EBFF0390164B9B68002B1BD1144B0122FC
:103A50009A60144BD3F88020134B1340104A136024
:103A6000104B114AC3F880200E4BD3F884300C4A17
:103A700053600C4B4FF0FF32C3F88420019B0022AF
:103A80001A7002E0019B01221A70039B002B01D1E6
:103A9000FFF7CEFF0023184605B05DF804FB00BF1A
:103AA0008012002000E100E0FC06FFBD00B585B0FB
:103AB00003468DF80730104B9B68002B16D09DF8FD
:103AC0000730002B12D1FFF7A7FF03900B4A0A4BD8
:103AD0001B681360094A084B5B685360064B002261
:103AE0009A60039B002B01D1FFF7A2FF0023184629
:103AF00005B05DF804FB00BF8012002000E100E08B
:103B000000B583B0019000F02BF80346012B03D0E1
:103B10000549432000F056F90198FFF78DFF00BFDB
:103B200003B05DF804FB00BFE06A010000B583B09C
:103B300003468DF8073000F013F80346012B03D03D
:103B40000649512000F03EF99DF807301846FFF76E
:103B5000ADFF00BF03B05DF804FB00BFE06A0100E9
:103B600084B0EFF305830193019BC3F30803039330
:103B7000039B002B0DD1EFF314830093009B029362
:103B8000029B03F00103002B0CBF01230023DBB2D7
:103B900000E00123184604B0704700B585B0EFF38C
:103BA00005830193019BC3F308030393039B002B3D
:103BB0000AD0039B103B0293029B5BB21846FFF7AF
:103BC00007FF0346DBB200E00F23184605B05DF89F
:103BD00004FB00001EF0040F1CBFEFF309800AE095
:103BE000EFF308800849094A884201D8904202D878
:103BF0008D464FF000006B46854608B5044B98474C
:103C0000BDE808409D4670470000012000F80020F4
:103C1000593C010000BF00BFBFF34F8F00BF074BEF
:103C2000DB6803F4E0620549054B1343CB60BFF347
:103C30004F8F00BF00BF00BFFCE700BF00ED00E0FA
:103C40000400FA0500B583B00190FFF7E5FF00BF5F
:103C500003B05DF804FB000010B588B00390FEF7D8
:103C6000CFFF00BFFEF708FE0346002BFAD1039BEF
:103C70000693494B9B6A0593484B1B881B0443F0F2
:103C80000100069B9B691A464549FEF793FD434B8D
:103C90001B881B0443F00100069B1968069B5C68A7
:103CA000069B9B68069AD2680192009323460A46B7
:103CB0003C49FEF7BAFD394B1B881B0443F0010059
:103CC000069B1A69069B5969069BDB6900930B46A4
:103CD0003549FEF794FD304BDB6A03F00203002BFD
:103CE00008D02E4B1B881B0443F001032F491846B4
:103CF000FEF752FD002307931EE00122079B02FA04
:103D000003F31A46059B1340002B12D0284A079B49
:103D100052F82330002B0CD0204B1B881B0443F09F
:103D20000100234A079B52F823301A462149FEF727
:103D300041FD079B01330793079B192BDDD9059B99
:103D400003F08003002B0AD0144B1B881B0443F0A4
:103D50000103114A526B18491846FEF72BFD059BCB
:103D600003F40043002B0AD00C4B1B881B0443F0C8
:103D70000103094A926B11491846FEF71BFD104BCF
:103D80001B6803F00103002B00D0FFDE0398FFF750
:103D900059FF00BF08B010BD00ED00E08C0B002003
:103DA0004C6B0100646B01009C6B0100C46B010053
:103DB000E00B0020086C0100146C0100346C010061
:103DC000F0ED00E000B585B003460091ADF8063097
:103DD000BDF80630ADF80830009B039302AB1A46DD
:103DE000002144F20200FEF78FFF00BF05B05DF82E
:103DF00004FB000000B583B001900B468DF8033042
:103E0000019B002B03D10849AF20FFF7DBFF019B8B
:103E1000DA689DF803300199098A01FB03F3134422
:103E2000184603B05DF804FB2C71010000B583B0A7
:103E300001900091019B002B03D10849BC20FFF7A2
:103E4000C1FF009B019AD2689B1A019A128AB3FBA8
:103E5000F2F3DBB2184603B05DF804FB2C710100ED
:103E600000B585B00190019B002B01D10E2348E0E5
:103E7000019B1B68002B03D12449C620FFF7A2FF3A
:103E8000019B5B68002B03D12049C720FFF79AFFF5
:103E9000019B9B68002B03D11C49C820FFF792FFB0
:103EA000019BDB68002B03D11849C920FFF78AFF6B
:103EB000019B1B8A002B03D11449CA20FFF782FF04
:103EC000019B9A68019B5B68D31A8DF80F30019BA8
:103ED0001B68019A52681A6007E0019B1A68136810
:103EE000591C11609DF80F201A709DF80F305A1E52
:103EF0008DF80F20002BF0D1019B1B6800221A7156
:103F00000023184605B05DF804FB00BF2C710100CA
:103F100000B585B00190019B002B03D11F49EC2017
:103F2000FFF750FF0023039300238DF80A300DF1B3
:103F30000A031846FFF7E4FD019B1B681A68019B02
:103F40005B689A421FD9019B1B681A68013A1A6084
:103F50001B681B7819460198FFF74CFF0390019BE3
:103F60009A68019B1B681B68D31A8DF80B30019B64
:103F70001B681B799DF80B209A4204D9019B1B6892
:103F80009DF80B201A719DF80A301846FFF7CEFDF8
:103F9000039B184605B05DF804FB00BF2C710100BF
:103FA00010B584B001900091019B002B04D11549FC
:103FB0004FF48870FFF706FF009B002B04D11149D6
:103FC00040F21110FFF7FEFE009B039300238DF8D3
:103FD0000B300DF10B031846FFF792FD019B1B6898
:103FE0001C68621C1A6003990198FFF71FFF0346C3
:103FF00023709DF80B301846FFF798FD00BF04B002
:1040000010BD00BF2C71010010B487B00190009169
:10401000019B009A53E8004F04EB020043E80001C3
:1040200091F0000FF6D1059404900391049B18467B
:1040300007B05DF8044B704710B487B00190009151
:10404000019B009A53E8004FA4EB020043E80001F3
:1040500091F0000FF6D1059404900391049B18464B
:1040600007B05DF8044B704700B583B0019001982C
:10407000FFF7F6FE0346184603B05DF804FB00B5F3
:104080008BB001900091019B1B8A043B0793009A1F
:10409000079B1344DA1C079BB2FBF3F38DF81B302C
:1040A0000198FFF735FF0590059B002B01D10023F8
:1040B00038E0059B00221A71059B01225A71079B6B
:1040C0009AB2059BDA80059B09939DF81B30013B52
:1040D0000493099B019A1A60002308931DE001983C
:1040E000FFF716FF0390039B002B0ED0059B5B7917
:1040F0000133DAB2059B5A71099B039A1A60039B3C
:10410000019A1A60039B099304E0059800F00EF8E9
:10411000002307E0089B01330893089A049B9A4206
:10412000DDD3059B18460BB05DF804FB00B58BB0E2
:104130000190019B0793079B5B798DF81B30019BD6
:1041400008939DF81B30013B05930023099305E07C
:10415000089B1B680893099B01330993099A059BE7
:104160009A42F5D3089B1B680493019B0893002394
:1041700009930BE0089B1B68039308990498FFF7C9
:104180000FFF039B0893099B013309939DF81B3094
:10419000099A9A42EED300BF00BF0BB05DF804FB52
:1041A00000B585B00190019B0393039B043301216B
:1041B0001846FFF729FF00BF05B05DF804FB00B506
:1041C00087B00190019B0593059B0433012118469C
:1041D000FFF732FF0346039303AB0493049B1B7862
:1041E000002B02D10198FFF7A1FF00BF07B05DF8D7
:1041F00004FB000000B58DB0039002910192009382
:10420000039B0693069BDB880593039B0B93009B04
:104210001A1D059BB2FBF3F30A93009B0433059A26
:10422000B3FBF2F2059901FB02F29B1A0993009A83
:10423000019B1A44059B1344DA1C059BB2FBF3F364
:104240008DF81330069B5B799DF813209A420AD9AA
:104250002849BA20FFF7B6FD05E00B9B1B680B93BE
:104260000A9B013B0A930A9B002BF6D1002308937B
:10427000059A099BD31A0793079A019B934228BF7B
:10428000134607932DE09DF83830002B0BD0029A8F
:10429000089BD0180B9A099B13440433079A1946BC
:1042A00002F0DAFA0AE00B9A099B1344181D029AED
:1042B000089B1344079A194602F0CEFA002309938B
:1042C0000B9B1B680B93019A079BD31A0193089AC7
:1042D000079B13440893059A019B934228BF1346FA
:1042E0000793019B002BCED100BF00BF0DB05DF83E
:1042F00004FB00BF8471010000B587B005900491F4
:104300000392029300230093029B039A0499059859
:10431000FFF770FF00BF07B05DF804FB82B00346F3
:104320008DF807309DF8073003F01F0206499DF90C
:1043300007305B09012000FA02F2603341F82320C4
:1043400000BF02B0704700BF00E100E000B583B0DD
:104350000190019B002B03D106497220FFF732FD2B
:10436000019B00221A60BFF35F8F00BF00BF03B044
:104370005DF804FB4472010041DF704700BF18463E
:1043800000B585B000238DF803300DF10303184606
:10439000FFF7B6FBF1EE103A0193019B0393039BE9
:1043A00023F09F030293029BE1EE103A00BFBFF39C
:1043B0005F8F00BF2620FFF7B1FF9DF8033018463E
:1043C000FFF7B4FB039B03F00703002B03D0044962
:1043D0007620FFF7F7FC00BF05B05DF804FB00BFD7
:1043E0008C720100054B00221A60054B00221A60F6
:1043F000044B00221A7000BF704700BF9C120020BF
:10440000A0120020A412002000B585B0FFF7CCFA5E
:104410000390194B1B6819460398FFF7CBFA0290DB
:10442000164B1B68029AD31A642203FB02F2029B0A
:10443000B2FBF3F38DF80730114B1B881B0443F0DC
:1044400003039DF807200F491846FEF7B3F90E4BFA
:104450001B789DF807209A4203D90B4A9DF8073034
:104460001370054A039B1360044B00221A6000BFBF
:1044700005B05DF804FB00BFA01200209C120020D4
:10448000A40B0020E8720100A412002008B5FFF779
:1044900084FB0346052B04D806494FF48970FFF7C7
:1044A00091FC054B1B69044A43F01003136100BFE4
:1044B00008BD00BF8C72010000ED00E000B583B0C4
:1044C0000190FFF7A1FF00BF03B05DF804FB0000FF
:1044D00000B583B00B4A01210B48FFF703FA0190A6
:1044E000019B002B01D0019B07E0084B00224FF4F9
:1044F00000411846FFF726FA0346184603B05DF858
:1045000004FB00BFBD440100AC730100A8120020F1
:1045100008B50E4B1B881B0443F003030C491846D7
:10452000FEF73AF90B4B00221A700B48FFF70EFF0B
:104530000A490B4800F05AF8FFF7A8FFFFF752FFAF
:10454000FFF7C6FF0346184608BD00BFA40B0020B6
:10455000F8720100901200208C120020A07301005C
:104560009412002000B587B0FFF70AFF00238DF8F2
:1045700007300DF107031846FFF7C2FAFFF714FAE8
:10458000059002F0C5F80346002B0ED0FFF7F4FEAD
:104590000490049B002B0ED0049B022B0BD01149DE
:1045A00040F25910FFF70EFC05E020BF00BF40BFEE
:1045B00000BF20BF00BFFFF7F7F9039005990398EC
:1045C000FFF7F8F90290084B1A68029B1344064A59
:1045D00013609DF807301846FFF7A8FA00BF07B030
:1045E0005DF804FB8C7201009C12002000B583B0C2
:1045F00001900091019B002B03D110495020FFF73F
:10460000E1FB009B002B03D10C495120FFF7DAFBA3
:10461000019B009A1A60019B1B681A68019B5A60F3
:10462000019B5A68019B1B685B689A4202D1019BFF
:1046300000225A6000BF03B05DF804FBB0730100B4
:1046400000B583B00190019B002B03D11449632076
:10465000FFF7B8FB019B1B68002B03D110496420B6
:10466000FFF7B0FB019B5B68002B14D0019B5B68DC
:104670001A46019B1B689B6813441A46019B5A60AB
:10468000019B5A68019B1B685B689A4204D1019B9D
:1046900000225A6000E000BF03B05DF804FB00BFD9
:1046A000B073010000B585B00190019800F00EF8DC
:1046B0000390039B002B01D0039B00E0024B1846A4
:1046C00005B05DF804FB00BF2474010086B00190C2
:1046D000164B0593164B04931FE0049A059BD31ABF
:1046E000DB10DA0F13445B10DB00059A13440393CD
:1046F000039B1B680293029A019B9A4202D9039B77
:1047000004930AE0029A019B9A4203D2039B083366
:10471000059302E0039B5B6804E0059A049B9A42C0
:10472000DBD30023184606B0704700BF4077010076
:104730003078010082B04FF0FF33019300BF02B028
:104740007047000082B003468DF807309DF80730AF
:1047500003F01F0205499DF907305B09012000FAAB
:1047600002F241F8232000BF02B0704700E100E0F0
:1047700082B003468DF807309DF8073003F01F0222
:1047800006499DF907305B09012000FA02F2603307
:1047900041F8232000BF02B0704700BF00E100E0F5
:1047A00082B0034600918DF807309DF90730002B49
:1047B0000CDA009BDAB20C499DF8073003F00F03C6
:1047C000043B5201D2B20B441A7609E0009BDAB2E4
:1047D00006499DF907305201D2B20B4483F80023F9
:1047E00000BF02B0704700BF00ED00E000E100E054
:1047F00000B583B003460A468DF8073013468DF89E
:1048000006309DF80630012B03D99DF80630032BA6
:104810000CD99DF80630042B03D99DF80630072BE0
:1048200004D90D494FF49270FFF7CCFA9DF8062099
:104830009DF9073011461846FFF7B2FF9DF9073082
:104840001846FFF795FF9DF907301846FFF77AFFE6
:1048500000BF03B05DF804FB3078010000B583B001
:104860000346ADF80630BDF80630184600F026F8CD
:1048700003461B68012B0CBF01230023DBB2184643
:1048800003B05DF804FB00B585B00346ADF8063013
:10489000BDF80630184600F011F803461A4600230A
:1048A0001360BDF80630184600F008F803461B6890
:1048B0000393039B00BF05B05DF804FB82B0034681
:1048C000ADF80630BDF8063003F1804303F5C04370
:1048D000184602B07047000082B00190034BD3F835
:1048E0000423019B1340184602B07047006000404B
:1048F00082B00190054A019B03F5A27352F8233060
:104900001B0A03F01F03184602B070470060004006
:1049100082B00190064A019B03F5A27352F823303E
:104920001B0C03F00303DBB2184602B0704700BF54
:104930000060004000B583B00190019B1B681F2BF5
:1049400004D905494FF4E870FFF73CFA4FF0A04353
:10495000184603B05DF804FB9078010000B585B0FF
:1049600001900B468DF8033001AB1846FFF7E2FFCC
:104970000390019A039B02F5E07253F82230019AEA
:1049800023F44031039B02F5E07243F82210019AB0
:10499000039B02F5E07253F822309DF803201204C5
:1049A0001146019A1943039B02F5E07243F8221065
:1049B00000BF05B05DF804FB00B585B0019001AB08
:1049C0001846FFF7B7FF0390019A039B02F5E072C8
:1049D00053F822301B0C03F00303DBB2184605B07A
:1049E0005DF804FB82B00190019BD3F810351846A6
:1049F00002B0704700B587B00390029101924FF06A
:104A0000A0430493039A029B1344012B04D9124937
:104A10004FF43A70FFF7D6F9039B059311E0059B1D
:104A20009B0018336B4453F8083C1846FFF7DAFF35
:104A30000246019B1A60019B04330193059B0133DD
:104A40000593039A029B1344059A9A42E7D300BF49
:104A500000BF07B05DF804FB9078010084B00190BE
:104A60000091009B0393019BDB080293019B03F0E1
:104A7000070301930122019B02FA03F30399029AAF
:104A80000A4412781340184604B0704784B001906D
:104A90000091009B0393019BDB080293019B03F0B1
:104AA00007030193039A029B13441B785AB2012116
:104AB000019B01FA03F35BB2134359B2039A029BC1
:104AC0001344CAB21A7000BF04B0704782B001909C
:104AD000044A019B1344303393F90030184602B066
:104AE000704700BFC812002082B00190034A019BAA
:104AF00052F82330184602B0704700BFC812002099
:104B000000B595B000231093002303934FF48073F6
:104B1000ADF84C300123129300230F9321E0BDF830
:104B20004C301846FFF79AFE0346002B0ED0129821
:104B3000FFF7D2FE0346002B08D0BDF84C301846D4
:104B4000FFF7A1FE109A129B13431093129B5B0078
:104B50001293BDF84C300433ADF84C300F9B013349
:104B60000F930F9B072BDAD94FF4BE70FFF776FE39
:104B70000346002B0DD04FF4BE70FFF784FE109B50
:104B800043F00043109303AB1A4601210020FFF7C6
:104B900031FF109BDBB2002B29D00123129300239D
:104BA0000F9321E0129A109B1340002B16D00F9800
:104BB000FFF79EFE0D900F98FFF7AAFE03468DF8B3
:104BC00033300F98FFF790FF0B900B9B002B05D015
:104BD0009DF833200B9B11460D989847129B5B0064
:104BE00012930F9B01330F930F9B072BDAD9109B66
:104BF000002B80F2EE8000238DF84F3000230293CB
:104C0000002311930AE0119B9B0050336B444FF03B
:104C1000FF3243F84C2C119B01331193119B002B55
:104C2000F1D000238DF84F3000230F9378E06B4ACA
:104C30000F9B1344503393F900308DF82B309DF8BF
:104C40002B3023F0C0030993644A0F9B1344503365
:104C500093F90030B3F1FF3F5FD001AB19460998DB
:104C6000FFF7FCFE0346002B57D09DF82B309B0925
:104C70008DF823300998FFF729FF03461846FFF700
:104C800033FF0790079B002B03D19DF82330032BA4
:104C900043D19DF82330032B04D102AB1946099868
:104CA000FFF7F4FE0998FFF787FE03468DF81B30E7
:104CB00003AB19460998FFF7D1FE0590059B002B21
:104CC00003D09DF81B30022B06D0059B002B24D16E
:104CD0009DF81B30032B20D19DF82330032B13D1DB
:104CE0009DF81B30022B01D1032300E002238DF835
:104CF00013309DF8133019460998FFF72FFE9DF8E1
:104D00004F3001338DF84F30079B002B05D09DF8B5
:104D10002320079B1146099898470F9B01330F9357
:104D20000F9B032B83D99DF84F30002B4CD00123D0
:104D30008DF83B306B461A4601210020FFF75AFEE2
:104D40000023119314E0119B9B0050336B4453F8E4
:104D5000502C119B9B0050336B4453F8443C9A42B7
:104D600003D000238DF83B3005E0119B01331193F4
:104D7000119B002BE7D09DF83B30002B03D0002384
:104D80008DF84F3020E0002311931AE0119B9B0017
:104D900050336B4453F8502C119B9B0050336B44A1
:104DA00043F8442C119B9B0050336B4453F8482C20
:104DB000119B9B0050336B4443F84C2C119B0133E7
:104DC0001193119B002BE1D09DF84F30002B7FF405
:104DD00028AF00BF15B05DF804FB00BFC81200206B
:104DE00082B003468DF807309DF8073003F1804309
:104DF00003F5E04301221A6000BF02B0704782B0A1
:104E00000346ADF80630BDF8063003F1804303F5E4
:104E1000E0431B68002B14BF01230023DBB21846BC
:104E200002B0704784B00346ADF80630BDF80630D6
:104E300003F1804303F5E04300221A60BDF8063019
:104E400003F1804303F5E0431B680393039B00BF1A
:104E500004B0704782B003468DF807300B468DF8DA
:104E6000063013468DF805300A499DF807309DF845
:104E7000052051331B010B4404331A6005499DF88A
:104E800007309DF8062051331B010B441A6000BF08
:104E900002B070470070004082B00190034A019B4D
:104EA000C2F8043300BF02B0704700BF007000407A
:104EB00082B00190034A019BC2F8083300BF02B0E0
:104EC000704700BF00700040024B0122C3F800256C
:104ED00000BF704700700040024B0022C3F800255D
:104EE00000BF70470070004082B001900091054AF9
:104EF000019BC2F82C36034A009BC2F8303600BF33
:104F000002B070470070004082B003468DF8073051
:104F1000034A9DF80730C2F8F03500BF02B0704771
:104F20000070004082B003468DF80730034A9DF8B8
:104F30000730C2F8F43500BF02B07047007000407F
:104F4000024BD3F8F435DBB21846704700700040CE
:104F500000B58DB04FF48270FFF751FF0346002B70
:104F600046D04FF48270FFF75DFF8C4B93F82E30E4
:104F700083F00103DBB2002B04D1884B93F82F3070
:104F8000002B35D000238DF81830844B5B680793D5
:104F9000824B1B899BB2ADF82030804BDB68002B25
:104FA00003D17E4B00221A7419E07C4B1A8B7B4B89
:104FB0005A837A4BDB68794A5360784B1A8B774B6C
:104FC0001A81764B0022DA60744B93F82E3083F00E
:104FD0000103DBB2002B02D00020FFF701FF6F4B73
:104FE0001B6806AA104698476C4B002283F82F20B6
:104FF0006A4B93F82E30002B62D04FF48070FFF78D
:10500000FEFE0346002B5BD04FF48070FFF70AFFD3
:10501000624B5A8B614B93F82D309BB29A421CD94C
:105020005E4B5A8B5D4B93F82D309BB2D31A9AB2DC
:105030005A4B5A83594B5A68584B1B899BB2194695
:10504000564B5B8BCB1A5B001344544A92F82D20CD
:1050500011461846FFF748FF2BE0504B5A8B4F4B39
:1050600093F82D309BB29A4214D14C4BDB68002B45
:1050700010D04A4B012283F82F20484B00225A833C
:10508000464BDB68454A92F82D2011461846FFF73B
:105090002BFF0EE0414B5A8B404B93F82D309BB2C7
:1050A0009A4206D13D4B012283F82F203B4B002230
:1050B0005A834FF48270FFF7B5FE0420FFF790FE8D
:1050C0004FF48870FFF79BFE0346002B0ED04FF481
:1050D0008870FFF7A7FE314B00221A7402238DF867
:1050E0000C302E4B1B6803AA104698474FF48A7069
:1050F000FFF785FE0346002B07D04FF48A70FFF7B9
:1051000091FE264B00221A7444E0244B5B690B93FA
:105110003DE00B9BB3FA83F30A934FF000420A9BE6
:1051200022FA03F3DB430B9A13400B930A9B9BB2C7
:1051300046339BB29B00ADF82630BDF826301846AA
:10514000FFF75DFE0346002B21D0BDF82630184640
:10515000FFF768FE01238DF80030BDF82630A3F577
:105160008C73DB08DBB28DF80430BDF82630A3F574
:105170008C7303F00403002B0CBF01230023DBB26C
:105180008DF80530054B1B686A46104698470B9B07
:10519000002BBED100BF0DB05DF804FB2013002032
:1051A00000B585B0019000912F4B93F82C30002B67
:1051B00003D008230393039B51E0009B002B03D1F2
:1051C00007230393039B4AE0019B002B01D1274B4C
:1051D0000193254A009B1360019B1B781846FFF73B
:1051E00093FE019B5B781846FFF79CFE019BDA78E3
:1051F0001D4B83F82E201C4B012283F82C201A4BC8
:1052000000221A74184B002283F82D20164B00221E
:105210005A61154B002283F82F206FF00040FFF7F2
:1052200047FE4FF48270FFF7FDFD4FF48070FFF7EB
:10523000F9FD019B9B7819460720FFF7D9FA022058
:10524000FFF72AFE084B93F82E30002B02D00120E6
:10525000FFF722FEFFF738FE00230393039B184657
:1052600005B05DF804FB00BF20130020D4790100D5
:1052700000B585B0034600918DF80730474B93F891
:105280002C30002B04D146494FF49C70FEF79AFD58
:105290009DF80730072B04D9414940F23910FEF739
:1052A00091FDFFF74DFE0346002B09D03B4B93F8D1
:1052B0002D30002B04D03A4940F23B10FEF782FD1E
:1052C000009BDB79092B03D8009BDB79002B04D1F1
:1052D000334940F23D10FEF775FD009B1B7A092B08
:1052E00004D92F4940F23F10FEF76CFD2B4B1B7C7D
:1052F000DBB2002B03D011230393039B4AE0009BF6
:105300001B79002B03D0009B1B79012B01D1FFF7E8
:10531000E3FD9DF80730214A0C335B0013441B79F1
:10532000002B07D11D4B93F82D300133DAB21B4B04
:1053300083F82D209DF80730009AD179174A0C3355
:105340005B0013440A461A719DF80730009A117ADF
:10535000124A0C335B0013440A465A719DF8073019
:105360000099184600F0DAF8009BD979009B1A7A68
:105370009DF807301846FFF76DFD009B1B79002B49
:1053800003D0009B1B79012B01D1FFF79DFD00236A
:105390000393039B184605B05DF804FB201300201F
:1053A0007879010000B587B0034600918DF8073089
:1053B000484B1B7CDBB2002B03D011230293029BD2
:1053C00084E0444B01221A740320FFF771FD012190
:1053D0000098FFF789FD3F4B93F82D30012B0FD933
:1053E0000023059309E0059BDBB20022002118464B
:1053F000FFF730FD059B01330593059B072BF2D981
:105400009DF80730334A0C335B00134419799DF83B
:105410000730304A0C335B0013445A799DF807304B
:105420001846FFF717FD0020FFF7DAFC0420FFF70E
:10543000D7FC42F21073049302E0049B013B0493F7
:105440004FF48270FFF7DBFC034683F00103DBB20D
:10545000002B02D0049B002BEFD14FF48070FFF79C
:10546000E1FC4FF48270FFF7DDFC1A4B93F82D300E
:10547000012B19D90023039313E0039BD8B2154ADB
:10548000039B0C335B0013441979124A039B0C33C2
:105490005B0013445B791A46FFF7DCFC039B013386
:1054A0000393039B072BE8D90A4B93F82E30002B6C
:1054B00003D00320FFF7F0FC02E00220FFF7ECFC32
:1054C000044B00221A7400230293029B184607B073
:1054D0005DF804FB2013002082B003468DF80730EE
:1054E0000B468DF8063013468DF805300A499DF8B5
:1054F00007309DF8052051331B010B4404331A601B
:1055000005499DF807309DF8062051331B010B44D7
:105510001A6000BF02B070470070004000B583B051
:10552000034600918DF80730009B1B7803F00302BF
:10553000009B5B781B0103F030031A43009B9B78B0
:105540001B0203F4E0631A43009BDB781B0303F4A4
:1055500080531A43009B1B791B0403F4E0231A4376
:10556000009B5B791B0503F4801342EA0301009B57
:105570009B791B0603F080720A489DF807300A43A6
:105580001B01034403F5A3631A60009BD979009BB8
:105590001A7A9DF807301846FFF79EFF00BF03B048
:1055A0005DF804FB00700040C2DF704700BF184682
:1055B000CDDF704700BF1846D1DF704700BF1846E7
:1055C000D3DF704700BF184600B585B00190019B3E
:1055D0001878019B5978019B9A7A019B9B78FFF779
:1055E000E3FF0390039B002B01D0039B31E0019B61
:1055F0001878019BD988019B5A79019B1B79FFF789
:10560000DFFF0390039B002B01D0039B21E0019B54
:105610001A78019BDB7819461046FFF7C9FF039003
:10562000039B002B01D0039B13E0019B9B7803F0AD
:105630000103002B0CD1019B1B89002B08D0019B7F
:105640001A78019B1B8919461046FFF7B5FF039096
:10565000039B184605B05DF804FB000000B583B05D
:105660000190019B1B681F2B04D905494FF4E8707A
:10567000FEF7A8FB4FF0A043184603B05DF804FB0B
:10568000D879010000B585B00190084611461A4648
:1056900003468DF803300B468DF8023013468DF823
:1056A000013001AB1846FFF7D9FF03909DF80320A6
:1056B0009DF802305B001A439DF801309B001A43AD
:1056C0009DF818301B0242EA03019DF81C301B04B0
:1056D000019A1943039B02F5E07243F8221000BFC0
:1056E00005B05DF804FB00B585B00390002301937D
:1056F000002300930023012201210398FFF7C2FF3A
:1057000000BF05B05DF804FB00B585B0019001ABAA
:105710001846FFF7A3FF0390019B012202FA03F34F
:105720001946039800F018F800BF05B05DF804FBB7
:1057300000B585B0019001AB1846FFF78FFF0390CD
:10574000019B012202FA03F31946039800F00EF8B8
:1057500000BF05B05DF804FB82B001900091019B91
:10576000009AC3F8082500BF02B0704782B00190CC
:105770000091019B009AC3F80C2500BF02B070474E
:10578000C4DF704700BF1846C7DF704700BF184628
:10579000CADF704700BF1846CFDF704700BF18460A
:1057A00082B0019000BF02B07047000000B58BB01E
:1057B0001E4A03AB07CA03C31A701D490020FFF736
:1057C000EFFC0990099B0893089B002B04D0194A11
:1057D0005C210898FDF732FA03AB19460020FFF769
:1057E00047FD0990099B0793079B002B04D0114AA2
:1057F0005F210798FDF722FA0F4A6B4607CA03C3D9
:105800001A706B4619460120FFF732FD0990099B7B
:105810000693069B002B04D0064A65210698FDF7E7
:105820000DFA00BF0BB05DF804FB00BF807A0100E9
:10583000A1570100147A01008C7A010000B583B0F1
:105840000020FCF7C7FD0190019B0093009B002BFB
:1058500004D0054A6C210098FDF7F0F9FEF76AFFC5
:1058600000BF03B05DF804FB147A010000BF70476D
:1058700000B589B0039002910192009304AB082215
:105880000021184601F011F803238DF81030039B16
:10589000DBB28DF8113000238DF81230029BDBB2A1
:1058A0008DF81330019BDBB28DF81430009BDBB216
:1058B0008DF815300A9BDBB28DF816300B9BDBB2EE
:1058C0008DF8173004AB1A4608210020FFF75CFF63
:1058D0000790079B0693069B002B05D0094A40F2D0
:1058E0004B110698FDF7AAF9074B1B881B0443F0E0
:1058F0000300029A079B0549FCF76DFF00BF09B042
:105900005DF804FB147A0100800B0020987A0100F6
:1059100000B585B001900091019B93F82C30002BCD
:1059200071D13E4B1B68002B6DD1019B93F82D303C
:10593000012B54D0802B68D1019B5B784E2B66D114
:10594000019BDB78002B16D1019B9B7A802B12D117
:10595000334B00221A600B20FFF7D6FE00210020F7
:10596000FFF716FF2F4B1B881B0443F003032E4940
:105970001846FCF711FF019BDB78002B1CD1019B23
:105980009B7A002B18D1274B1B881B0443F0030381
:1059900026491846FCF700FF00210020FFF7F8FE1B
:1059A0000B20FFF7C5FE224B00221A60214B00227C
:1059B0001A601B4B01221A60019BDB78002B26D159
:1059C000019B9B7AFF2B22D11B4B1B68002B1ED106
:1059D000194B01221A60124B00221A6017E00021B5
:1059E0000020FFF7CDFE0346144A1360134B1B68DB
:1059F0000393039B002B0CD0114A4FF4BB71039807
:105A0000FDF71CF905E000BF04E000BF02E000BFA5
:105A100000E000BF00BF05B05DF804FB901300205C
:105A200074130020800B0020C87A0100F07A010076
:105A300070130020781300208C130020981300208E
:105A4000147A010000B585B000F01CFE0390039BA2
:105A50000293029B002B05D0104A4FF4C3710298A9
:105A6000FDF7ECF800F054FE0346002B04D10B497F
:105A70004FF4C470FEF7A6F900F098FE0390039B64
:105A80000193019B002B05D0044A40F28B11019831
:105A9000FDF7D4F800BF05B05DF804FB147A0100EF
:105AA00000B587B0144A6B4607CA83E807006B4607
:105AB0001846FFF789FD0590059B0493049B002B76
:105AC00005D00E4A4FF4D0710498FDF7B7F80021C5
:105AD0000020FFF755FE0590059B0393039B002BC9
:105AE00005D0064A4FF4D2710398FDF7A7F800BF1E
:105AF00007B05DF804FB00BF047B0100147A0100CD
:105B000000B587B003903A4B1B68002B6CD1394924
:105B10000020FFF747FC0346374A1360364B1B68EB
:105B20000593059B002B05D0344A40F2D51105980A
:105B3000FDF784F8324B1B68002B0FD1314B1B68EB
:105B4000002B0BD0304B1B881B0443F003032F4961
:105B50001846FCF721FE2B4B00221A602C4B1B68C9
:105B600001332B4A13602A4B1B68032B02DC284BA2
:105B70001B6800E00023264A1360214B1B68012BA1
:105B800033D1234B1B68002B2FD11A4BB3F90030B4
:105B90001846204B1968204BD3ED007ABDEEE77A0A
:105BA0001D4BD3ED017AFDEEE76A1B4BD3ED027A74
:105BB000FDEEE77A17EE902A174BD3ED037AFDEE50
:105BC000E77A17EE903A0193009216EE903A17EEAC
:105BD000102AFFF74DFE0F4B1B6801330D4A13606F
:105BE0000B20FFF7A5FD00E000BF07B05DF804FB48
:105BF000901300209413002098130020147A0100C1
:105C000074130020480C0020800B0020107B010042
:105C100078130020701300207C13002000B587B09B
:105C20004FF080430122C3F878250B20FFF75BFD7E
:105C30000B20FFF769FDFFF701FEFFF703FFFFF7FA
:105C40002FFFFFF7B3FD344B1B881B0443F0030306
:105C500032491846FCF7A0FD2F4B1B881B0443F06C
:105C6000030303222E491846FCF7A4FD0022042159
:105C70000020FFF791FD01AB08220321184600F038
:105C800014FE28490120FFF78DFB0590254BB3F941
:105C90000030DBB28DF80B3001AB1A460821002032
:105CA000FFF772FD0590FDF7E9FD1F4A01211F482E
:105CB000FDF718FE0590059B0493049B002B05D06F
:105CC0001B4A40F212210498FCF7B8FF0B20FFF7A3
:105CD0002FFDFFF7CBFDFEF71BFC0590059B039303
:105CE000039B002B05D0124A40F217210398FCF7C2
:105CF000A5FF104B002240F233311846FDF722FE7B
:105D00000590FCF7B9FD034683F00103DBB2002BDD
:105D1000F7D0FEF727FCF4E7800B0020387B01006A
:105D2000447B010094130020015B0100647B0100AF
:105D3000147A010050130020BFF34F8F00BF074BB0
:105D4000DB6803F4E0620549054B1343CB60BFF306
:105D50004F8F00BF00BF00BFFCE700BF00ED00E0B9
:105D60000400FA05024B034A1A6000BF704700BFE7
:105D70004C0C00200090D00308B500F05DF90346FC
:105D8000002B06D09B4B1B681B0A9B4A03F01F038A
:105D9000136000F07DF90346002B02D0974B984A20
:105DA0001A6000F091F90346002B06D0954B1B6852
:105DB0005B0B954A03F00703136000F0B1F903464B
:105DC000002B05D0914BDB68904A23F08073D360A1
:105DD00000F0C2F90346002B0ED04FF080430022A2
:105DE000C3F80C214FF080430022C3F810214FF07C
:105DF00080430022C3F8382500F0DAF90346002B6F
:105E000002D0834B03221A6000F0EEF90346002B08
:105E10000BD0804B05221A607F4B01221A607F4B0A
:105E200000221A607E4B3F221A6000F0F9F9034607
:105E3000002B76D04FF080537A4AD3F80434C2F85E
:105E400020354FF08053774AD3F80834C2F8243510
:105E50004FF08053734AD3F80C34C2F828354FF012
:105E60008053704AD3F81034C2F82C354FF0805369
:105E70006C4AD3F81434C2F830354FF08053694A75
:105E8000D3F81834C2F834354FF08053654AD3F84C
:105E90001C34C2F840354FF08053624AD3F82034A6
:105EA000C2F844354FF080535E4AD3F82434C2F828
:105EB00048354FF080535B4AD3F82834C2F84C354C
:105EC0004FF08053574AD3F82C34C2F850354FF076
:105ED0008053544AD3F83034C2F854354FF08053CD
:105EE000504AD3F83434C2F860354FF080534D4AED
:105EF000D3F83834C2F864354FF08053494AD3F8A8
:105F00003C34C2F868354FF08053464AD3F84034E9
:105F1000C2F86C354FF08053424AD3F84434C2F88B
:105F2000703500F099F90346002B05D03E4B1B68F5
:105F30003E4A03F04F03136000F0BAF90346002B0A
:105F40000DD04FF08043D3F8003403F00103002B51
:105F500005D04FF080436FF00102C3F80024344BAA
:105F6000D3F88830324A43F47003C2F88830BFF364
:105F70004F8F00BFBFF36F8F00BF4FF01023D3F8D8
:105F80000032002B05DB4FF01023D3F80432002B36
:105F90002BDA284B0122C3F8042500BF254BD3F888
:105FA0000034002BFAD04FF010231522C3F8002242
:105FB00000BF204BD3F80034002BFAD04FF0102351
:105FC0001522C3F8042200BF1A4BD3F80034002B6B
:105FD000FAD0184B0022C3F8042500BF154BD3F8A4
:105FE0000034002BFAD0FFF7A7FEFFF7BBFE00BF7F
:105FF00008BD00BF240300104035014074C00740B5
:106000000DF0ADBA440200103C050040F0ED00E098
:10601000A005004010560040885600401856004029
:106020001456004000C0004058020010E40E00402A
:1060300000ED00E000E00140124B1B68DBB2062BD4
:106040001DD1114B1B6803F00F03002B17D10F4B11
:106050001B6803F0F003302B01D1012310E00B4B40
:106060001B6803F0F003402B01D1012308E0074B2C
:106070001B6803F0F003502B01D1012300E0002343
:1060800018467047E00F00F0E40F00F0E80F00F052
:106090000A4B1B68DBB2062B0DD1094B1B6803F0C2
:1060A0000F03002B07D1074B1B6803F0F003302BC5
:1060B00001D1012300E0002318467047E00F00F0F3
:1060C000E40F00F0E80F00F0124B1B68DBB2062B68
:1060D0001DD1114B1B6803F00F03002B17D10F4B81
:1060E0001B6803F0F003302B01D1012310E00B4BB0
:1060F0001B6803F0F003402B01D1012308E0074B9C
:106100001B6803F0F003502B01D1012300E00023B2
:1061100018467047E00F00F0E40F00F0E80F00F0C1
:106120000A4B1B68DBB2062B0DD1094B1B6803F031
:106130000F03002B07D1074B1B6803F0F003302B34
:1061400001D1012300E0002318467047E00F00F062
:10615000E40F00F0E80F00F0124B1B68DBB2062BD7
:106160001DD1114B1B6803F00F03002B17D10F4BF0
:106170001B6803F0F003302B01D1012310E00B4B1F
:106180001B6803F0F003402B01D1012308E0074B0B
:106190001B6803F0F003502B01D1012300E0002322
:1061A00018467047E00F00F0E40F00F0E80F00F031
:1061B0000A4B1B68DBB2062B0DD1094B1B6803F0A1
:1061C0000F03002B07D1074B1B6803F0F003302BA4
:1061D00001D1012300E0002318467047E00F00F0D2
:1061E000E40F00F0E80F00F00A4B1B68DBB2062B4F
:1061F0000DD1094B1B6803F00F03002B07D1074B90
:106200001B6803F0F003302B01D1012300E00023D1
:1062100018467047E00F00F0E40F00F0E80F00F0C0
:106220000A4B1B68DBB2062B0DD1094B1B6803F030
:106230000F03002B07D1074B1B6803F0F003502B13
:1062400001D1012300E0002318467047E00F00F061
:10625000E40F00F0E80F00F0124B1B68DBB2062BD6
:106260001DD1114B1B6803F00F03002B17D10F4BEF
:106270001B6803F0F003302B01D1012310E00B4B1E
:106280001B6803F0F003402B01D1012308E0074B0A
:106290001B6803F0F003502B01D1012300E0002321
:1062A00018467047E00F00F0E40F00F0E80F00F030
:1062B000124B1B68DBB2062B1DD1114B1B6803F080
:1062C0000F03002B17D10F4B1B6803F0F003302B8B
:1062D00001D1012310E00B4B1B6803F0F003402BAE
:1062E00001D1012308E0074B1B6803F0F003502B9A
:1062F00001D1012300E0002318467047E00F00F0B1
:10630000E40F00F0E80F00F082B003468DF807308C
:106310009DF8073003F01F0205499DF907305B091E
:10632000012000FA02F241F8232000BF02B07047BA
:1063300000E100E082B0034600918DF807309DF93E
:106340000730002B0CDA009BDAB20C499DF80730BD
:1063500003F00F03043B5201D2B20B441A7609E05A
:10636000009BDAB206499DF907305201D2B20B44C4
:1063700083F8002300BF02B0704700BF00ED00E0CB
:1063800000E100E082B003468DF807309DF9073048
:10639000002B0BDA0B4A9DF8073003F00F03043B88
:1063A00013441B7EDBB25B09DBB208E0064A9DF9B1
:1063B0000730134493F80033DBB25B09DBB21846B5
:1063C00002B0704700ED00E000E100E000B583B0EE
:1063D0000190019B002B03D10449C420FDF7F2FC7E
:1063E000019B5B68184603B05DF804FB687B010005
:1063F00010DF704700BF184682B003468DF80730A3
:106400009DF907301F2B0CDC9DF907300F4A22FA4B
:1064100003F303F00103002B14BF01230023DBB2BD
:1064200010E09DF907303F2B0BDC9DF90730203B36
:10643000012202FA03F3002B14BF01230023DBB275
:1064400000E00123184602B0704700BFFC06FFBD04
:1064500082B00190019B072B07D8EC22019B42FAE6
:1064600003F303F00103002B01D1002300E001231B
:10647000184602B07047000000B583B003468DF89F
:1064800007309DF907301846FFF7B6FF0346002B8B
:1064900002D142F201032EE09DF907301846FFF7C2
:1064A00071FF03461846FFF7D3FF0346002B02D1C6
:1064B00042F202031FE0124B9B68002B15D09DF99E
:1064C00007305B090E4A52F823209DF8073003F08D
:1064D0001F03012101FA03F319469DF907305B09F7
:1064E0000A43074941F8232004E09DF90730184684
:1064F000FFF70AFF0023184603B05DF804FB00BF56
:106500008012002000B583B0034600918DF807305B
:106510009DF907301846FFF76FFF0346002B02D1A5
:1065200042F201030FE00098FFF792FF0346002BB1
:1065300002D142F2020306E09DF9073000991846A5
:10654000FFF7F8FE0023184603B05DF804FB0000D7
:1065500000B587B003468DF8073002AB14491846E2
:10656000FEF744F817E002AB1846FFF72FFF05903F
:10657000059B1B680493059B59689DF80720049BA5
:10658000104698470346002B01D111230BE002ABC4
:106590001846FEF755F802AB1846FFF717FF0346FB
:1065A000002BE0D10023184607B05DF804FB00BFC4
:1065B0004C7C010000B587B003468DF8073002AB74
:1065C00011491846FEF712F812E002AB1846FFF721
:1065D000FDFE0590059B1B680493059B59689DF87B
:1065E0000720049B1046984702AB1846FEF728F890
:1065F00002AB1846FFF7EAFE0346002BE5D100BFC9
:1066000000BF07B05DF804FB587C010000B583B003
:106610001620FFF731FF0190019B0093009B002B98
:1066200004D0044A99210098FCF708FB00BF03B08E
:106630005DF804FBC87B010000B585B0072116207A
:10664000FFF760FF0390039B0293029B002B04D093
:106650000B4AB8210298FCF7F1FA07211520FFF741
:1066600051FF0390039B0193019B002B04D0044A2C
:10667000BA210198FCF7E2FA00BF05B05DF804FB0F
:10668000C87B010000B583B01B4B1B78002B01D0E9
:1066900008232DE0194B01221A700020FFF758FF44
:1066A0000346112B01D1002322E00020FFF782FFD7
:1066B000134B1B6800936B46124A13491846FFF7A9
:1066C00097FE0190019B002B01D0019B10E00A4B2B
:1066D00001221A70094B00221A700C4B00221A700A
:1066E000FFF7AAFFFFF792FF0120FFF763FF0023E8
:1066F000184603B05DF804FB9C1300209E13002095
:10670000487C0100207C0100092D01009D13002020
:10671000014B1B78184670479C13002000B585B0CC
:106720006B4611491846FDF761FF10E06B461846AD
:10673000FFF74CFE0390039B1B680293039B5A6870
:10674000029B104698476B461846FDF779FF6B464B
:106750001846FFF73BFE0346002BE7D100BF00BF02
:1067600005B05DF804FB00BF647C010008B5FFF7CD
:10677000D5FF00BF08BD000000B583B00190019BAC
:10678000002B03D10449C420FDF71CFB019B5B686F
:10679000184603B05DF804FB707C0100C1DF704750
:1067A00000BF1846FADF704700BF184600B585B035
:1067B000074A6B4607CA83E807006B461846FFF78F
:1067C000F1FF0390039B184605B05DF804FB00BF82
:1067D000D47C010000B595B0019003AA03AB03F18E
:1067E0002D0103AB2C331846FFF7D8FF1390139BF2
:1067F000002B03D0139B052B20D124E00FAB1449B1
:106800001846FDF7F3FE11E00FAB1846FFF7B4FF93
:106810001290129B1B681193129B596803AA119B3B
:10682000104698470FAB1846FDF70AFF0FAB184606
:10683000FFF7A2FF0346002BE6D1CEE7054A8121F0
:106840001398FCF7FBF900BF15B05DF804FB00BF1F
:106850003C7D0100E07C0100844640EA010313F026
:10686000030F18D18446202A0BD32DE9F007B1E895
:10687000F807A0E8F807A2F12002202AF7D2BDE825
:10688000F007042A07D351F8043B40F8043BA2F177
:106890000402042AF7D2002A05D011F8013B00F8BF
:1068A000013B013AF9D1604670478446002A2DD059
:1068B00010F0030F04D000F8011B013A26D0F7E7CF
:1068C000C9B241EA012141EA0141202A12D3A2F1D1
:1068D00020022DE9F0030B460C460D460E460F46EE
:1068E00088468946A0E8FA03203AFBD2BDE8F003C7
:1068F00020320BD0042A05D340F8041B043A05D0FB
:10690000042AF9D200F8011B013AFBD16046704716
:08691000115901000000000014
:10691800E069010000000300406B01000000030073
:1069280024710100000000008072010000000300D3
:10693800CC78010000000000707901000000000020
:10694800C07B010000000300C87C010000000300B8
:08695800D567010000000000FA
:106960000000000000000000000000000000000027
:106970000000000000000000000000000000000017
:106980000000000000000000000000000000000007
:1069900000000000000000000000000000000000F7
:1069A00000000000000000000000000000000000E7
:1069B00000000000000000000000000000000000D7
:1069C000180D0020500C0020580C0020580C0020FE
:1069D000180000004F766572666C6F77000000004B
:1069E00061707000433A5C6669726D776172652010
:1069F0006C756363686573696E695C6E5246355F7A
:106A000053444B5F31342E322E305F31376239348C
:106A100038615C636F6D706F6E656E74735C6C690A
:106A2000627261726965735C6578706572696D65C3
:106A30006E74616C5F6C6F675C7372635C6E7266C0
:106A40005F6C6F675F66726F6E74656E642E630055
:106A5000534F46544445564943453A2041535345C4
:106A60005254494F4E204641494C454400000000D5
:106A7000534F46544445564943453A20494E5641A2
:106A80004C4944204D454D4F5259204143434553B5
:106A900053000000415353455254494F4E20464144
:106AA000494C45442061742025733A257500000047
:106AB0004552524F52202575205B25735D2061742D
:106AC0002025733A25750000554E4B4E4F574E20EA
:106AD0004641554C54206174203078253038580098
:106AE000433A5C6669726D77617265206C756363A9
:106AF000686573696E695C6E5246355F53444B5FDF
:106B000031342E322E305F313762393438615C6374
:106B10006F6D706F6E656E74735C6C6962726172BA
:106B20006965735C7574696C5C6170705F757469BC
:106B30006C5F706C6174666F726D2E630000000094
:106B4000686172646661756C74000000484152446B
:106B5000204641554C5420617420307825303858F7
:106B600000000000202052303A20203078253038B4
:106B700058202052313A20203078253038582020B3
:106B800052323A2020307825303858202052333A7B
:106B90002020307825303858000000002020523165
:106BA000323A2030782530385820204C523A202074
:106BB00030782530385820205053523A20307825EC
:106BC0003038580043617573653A204275734661E9
:106BD000756C74206F6E206120766563746F72200F
:106BE0007461626C65207265616420647572696E9F
:106BF0006720657863657074696F6E2070726F636B
:106C0000657373696E672E0043617573653A20255D
:106C1000732E00004D656D4D616E616765204661A4
:106C2000756C7420416464726573733A2030782502
:106C300030385800427573204661756C7420416489
:106C400064726573733A203078253038580000003C
:106C50005468652070726F636573736F722068612A
:106C60007320617474656D7074656420746F206541
:106C700078656375746520616E20756E64656669FC
:106C80006E656420696E737472756374696F6E00EB
:106C90005468652070726F636573736F72206174DE
:106CA00074656D707465642061206C6F6164206F21
:106CB000722073746F72652061742061206C6F6341
:106CC0006174696F6E207468617420646F657320ED
:106CD0006E6F74207065726D697420746865206FC2
:106CE0007065726174696F6E00000000556E737498
:106CF00061636B20666F7220616E206578636570DA
:106D000074696F6E2072657475726E20686173208D
:106D1000636175736564206F6E65206F72206D6F9F
:106D20007265206163636573732076696F6C61744B
:106D3000696F6E7300000000537461636B696E6766
:106D400020666F7220616E20657863657074696F6C
:106D50006E20656E7472792068617320636175734B
:106D60006564206F6E65206F72206D6F72652061A3
:106D700063636573732076696F6C6174696F6E739A
:106D80000000000041204D656D4D616E616765201A
:106D90006661756C74206F636375727265642064DC
:106DA0007572696E6720666C6F6174696E672D70AD
:106DB0006F696E74206C617A7920737461746520D8
:106DC000707265736572766174696F6E00000000A1
:106DD000496E737472756374696F6E206275732087
:106DE0006572726F72000000446174612062757395
:106DF000206572726F72202850432076616C756531
:106E000020737461636B656420666F7220746865BB
:106E100020657863657074696F6E20726574757231
:106E20006E20706F696E747320746F2074686520B3
:106E3000696E737472756374696F6E2074686174BF
:106E40002063617573656420746865206661756C84
:106E50007429000044617461206275732065727248
:106E60006F72202872657475726E20616464726539
:106E7000737320696E2074686520737461636B207E
:106E80006672616D65206973206E6F742072656C27
:106E90006174656420746F2074686520696E737412
:106EA00072756374696F6E207468617420636175B4
:106EB00073656420746865206572726F72290000C2
:106EC000556E737461636B20666F7220616E20650E
:106ED0007863657074696F6E2072657475726E2068
:106EE00068617320636175736564206F6E65206FE0
:106EF00072206D6F7265204275734661756C747394
:106F000000000000537461636B696E6720666F72E6
:106F100020616E20657863657074696F6E20656EA0
:106F20007472792068617320636175736564206F82
:106F30006E65206F72206D6F7265204275734661B9
:106F4000756C7473000000004120627573206661E7
:106F5000756C74206F6363757272656420647572FA
:106F6000696E6720666C6F6174696E672D706F69FA
:106F70006E74206C617A792073746174652070720C
:106F800065736572766174696F6E00005468652080
:106F900070726F636573736F7220686173206174C0
:106FA00074656D7074656420746F206578656375B1
:106FB000746520616E20696E737472756374696F95
:106FC0006E2074686174206D616B657320696C6CF0
:106FD0006567616C20757365206F66207468652035
:106FE00045505352000000005468652070726F6372
:106FF0006573736F722068617320617474656D705E
:1070000074656420616E20696C6C6567616C206CCE
:107010006F6164206F66204558435F524554555256
:107020004E20746F207468652050432C20617320BB
:107030006120726573756C74206F6620616E2069C3
:107040006E76616C696420636F6E746578742C2051
:107050006F7220616E20696E76616C69642045589C
:10706000435F52455455524E2076616C7565000061
:107070005468652070726F636573736F7220686106
:107080007320617474656D7074656420746F206121
:107090006363657373206120636F70726F636573E0
:1070A000736F72005468652070726F636573736FDD
:1070B0007220686173206D61646520616E20756E59
:1070C000616C69676E6564206D656D6F72792061B2
:1070D00063636573730000005468652070726F63AA
:1070E0006573736F7220686173206578656375746A
:1070F000656420616E2053444956206F72205544C8
:10710000495620696E737472756374696F6E207767
:1071100069746820612064697669736F72206F6694
:107120002030000062616C6C6F630000433A5C6663
:1071300069726D77617265206C75636368657369E8
:107140006E695C6E5246355F53444B5F31342E326C
:107150002E305F313762393438615C636F6D706F28
:107160006E656E74735C6C69627261726965735C82
:1071700062616C6C6F635C6E72665F62616C6C6F97
:10718000632E6300433A5C6669726D7761726520B5
:107190006C756363686573696E695C6E5246355FD2
:1071A00053444B5F31342E322E305F3137623934E5
:1071B00038615C636F6D706F6E656E74735C6C6963
:1071C000627261726965735C6578706572696D651C
:1071D0006E74616C5F6D656D6F626A5C6E72665F26
:1071E0006D656D6F626A2E63000000002E2E2F2EDB
:1071F0002E2F2E2E2F2E2E2F2E2E2F2E2E2F2E2EAA
:107200002F636F6D706F6E656E74732F6C69627231
:1072100061726965732F6578706572696D656E74EA
:10722000616C5F73656374696F6E5F766172732FF3
:107230006E72665F73656374696F6E5F69746572A1
:107240002E6800002E2E2F2E2E2F2E2E2F2E2E2F7C
:107250002E2E2F2E2E2F2E2E2F636F6D706F6E659C
:107260006E74732F6C69627261726965732F6D75CC
:107270007465782F6E72665F6D74782E68000000FA
:107280007077725F6D676D7400000000433A5C6652
:1072900069726D77617265206C7563636865736987
:1072A0006E695C6E5246355F53444B5F31342E320B
:1072B0002E305F313762393438615C636F6D706FC7
:1072C0006E656E74735C6C69627261726965735C21
:1072D0007077725F6D676D745C6E72665F707772E7
:1072E0005F6D676D742E6300435055205573616761
:1072F000653A202575252500496E69740000000057
:1073000053687574646F776E20737461727465640A
:107310002E20547970652025640000005379734F46
:1073200066662068616E646C65722030782530383E
:1073300058203D3E20726561647900005379734F97
:1073400066662068616E646C65722030782530381E
:1073500058203D3E20626C6F636B696E67000000D1
:107360004D6178696D756D20435055207573616767
:10737000653A20257525250053687574646F776E0E
:1073800020636F6D706C6574652E000053687574B2
:10739000646F776E20726571756573742025640063
:1073A000186901001869010004000000A8120020FB
:1073B000433A5C6669726D77617265206C756363D0
:1073C000686573696E695C6E5246355F53444B5F06
:1073D00031342E322E305F313762393438615C639C
:1073E0006F6D706F6E656E74735C6C6962726172E2
:1073F0006965735C6578706572696D656E74616CE2
:107400005F73656374696F6E5F766172735C6E72D1
:10741000665F73656374696F6E5F697465722E630E
:1074200000000000556E6B6E6F776E206572726F94
:107430007220636F646500004E52465F53554343AC
:10744000455353004E52465F4552524F525F53567A
:10745000435F48414E444C45525F4D495353494E5A
:10746000470000004E52465F4552524F525F534F05
:1074700046544445564943455F4E4F545F454E413F
:10748000424C4544000000004E52465F4552524F68
:10749000525F494E5445524E414C00004E52465F99
:1074A0004552524F525F4E4F5F4D454D0000000018
:1074B0004E52465F4552524F525F4E4F545F464FB9
:1074C000554E44004E52465F4552524F525F4E4F0A
:1074D000545F535550504F52544544004E52465FEE
:1074E0004552524F525F494E56414C49445F5041BC
:1074F00052414D004E52465F4552524F525F494EE7
:1075000056414C49445F5354415445004E52465FE6
:107510004552524F525F494E56414C49445F4C458B
:107520004E475448000000004E52465F4552524FAD
:10753000525F494E56414C49445F464C41475300C7
:107540004E52465F4552524F525F494E56414C494A
:10755000445F4441544100004E52465F4552524FF1
:10756000525F444154415F53495A45004E52465F71
:107570004552524F525F54494D454F5554000000FB
:107580004E52465F4552524F525F4E554C4C000092
:107590004E52465F4552524F525F464F5242494407
:1075A00044454E004E52465F4552524F525F494E3F
:1075B00056414C49445F4144445200004E52465F9C
:1075C0004552524F525F4255535900004E52465F4A
:1075D0004552524F525F4D4F44554C455F4E4F54AC
:1075E0005F494E495449414C5A4544004E52465F0A
:1075F0004552524F525F4D555445585F494E49547C
:107600005F4641494C4544004E52465F4552524FF9
:10761000525F4D555445585F4C4F434B5F4641496F
:107620004C4544004E52465F4552524F525F4D55B5
:107630005445585F554E4C4F434B5F4641494C456E
:10764000440000004E52465F4552524F525F4D5526
:107650005445585F434F4E445F494E49545F46413D
:10766000494C4544000000004E52465F4552524F7F
:10767000525F4D4F44554C455F414C524541445932
:107680005F494E495449414C495A45440000000065
:107690004E52465F4552524F525F53544F524147EC
:1076A000455F46554C4C00004E52465F4552524F86
:1076B000525F4150495F4E4F545F494D504C454DCC
:1076C000454E5445440000004E52465F4552524FCD
:1076D000525F464541545552455F4E4F545F454EAB
:1076E00041424C45440000004E52465F4552524FC5
:1076F000525F4452565F5457495F4552525F4F564E
:10770000455252554E0000004E52465F4552524F70
:10771000525F4452565F5457495F4552525F414E43
:1077200041434B004E52465F4552524F525F4452C6
:10773000565F5457495F4552525F444E41434B0098
:1077400000000000387401000100000044740100D2
:10775000020000006474010003000000887401004E
:10776000040000009C74010005000000B0740100DA
:1077700006000000C474010007000000DC74010072
:1077800008000000F4740100090000000C750100FD
:107790000A000000287501000B0000004075010080
:1077A0000C000000587501000D0000006C75010010
:1077B0000E000000807501000F00000090750100B0
:1077C00010000000A475010011000000BC7501004C
:1077D00080000000CC75010081000000EC75010004
:1077E000820000000876010083000000247601007A
:1077F00084000000447601008500000068760100E6
:10780000860000009076010090000000A87601003C
:1078100091000000C876010000820000E8760100B7
:107820000182000008770100028200002477010035
:10783000433A5C6669726D77617265206C7563634B
:10784000686573696E695C6E5246355F53444B5F81
:1078500031342E322E305F313762393438615C6317
:107860006F6D706F6E656E74735C6472697665724D
:10787000735F6E72665C636F6D6D6F6E5C6E726669
:107880005F6472765F636F6D6D6F6E2E63000000D4
:107890002E2E2F2E2E2F2E2E2F2E2E2F2E2E2F2E03
:1078A0002E2F2E2E2F636F6D706F6E656E74732F7B
:1078B000647269766572735F6E72662F68616C2F91
:1078C0006E72665F6770696F2E6800006770696F1F
:1078D00074650000433A5C6669726D776172652079
:1078E0006C756363686573696E695C6E5246355F7B
:1078F00053444B5F31342E322E305F31376239348E
:1079000038615C636F6D706F6E656E74735C64720A
:1079100069766572735F6E72665C6770696F7465B5
:107920005C6E72665F6472765F6770696F74652EF5
:10793000630000002E2E2F2E2E2F2E2E2F2E2E2FB8
:107940002E2E2F2E2E2F2E2E2F636F6D706F6E65A5
:107950006E74732F647269766572735F6E72662FD0
:1079600068616C2F6E72665F73616164632E68007C
:107970007361616463000000433A5C6669726D770D
:10798000617265206C756363686573696E695C6EAE
:107990005246355F53444B5F31342E322E305F31C7
:1079A0003762393438615C636F6D706F6E656E7409
:1079B000735C647269766572735F6E72665C736124
:1079C0006164635C6E72665F6472765F736161644A
:1079D000632E6300000007012E2E2F2E2E2F2E2E39
:1079E0002F2E2E2F2E2E2F2E2E2F2E2E2F636F6DFD
:1079F000706F6E656E74732F647269766572735FF3
:107A00006E72662F68616C2F6E72665F6770696F49
:107A10002E680000433A5C6669726D77617265207A
:107A20006C756363686573696E695C6E5246355F39
:107A300053444B5F31342E322E305F31376239344C
:107A400038615C6578616D706C65735C616E745CE7
:107A5000616E745F62726F6164636173745C72659E
:107A600073706972686F5F736F6C6F5F696E746556
:107A700072727570745C6D61696E2E630000000037
:107A800000000000050000010000000000000000F0
:107A900005000009000000004D65737361676769A8
:107AA0006F206E756D65726F2025642C2072657471
:107AB00020636F646520616E742062726F6164631D
:107AC0006173743A20256400526963657675746F3A
