:1000000000000120750300005D0300005F03000095
:1000100061030000630300006503000000000000AE
:100020000000000000000000000000006703000066
:1000300069030000000000006B0300006D03000076
:100040006F0300006F030000C5200000811B00004B
:10005000911B00006F0300006F0300002D160000CD
:10006000C11500006F0300006F0300006F03000064
:100070006F0300006F0300006F0300006F030000B8
:100080006F0300006F0300006F0300006F030000A8
:100090006F0300006F0300006F0300006F03000098
:1000A0006F0300006F0300006F0300006F03000088
:1000B0006F0300006F03000000000000000000005C
:1000C0006F0300006F0300006F0300006F03000068
:1000D0006F0300006F0300006F03000000000000CA
:1000E0000000000000000000000000000000000010
:1000F0000000000000000000000000000000000000
:1001000000000000000000000000000000000000EF
:1001100000000000000000000000000000000000DF
:1001200000000000000000000000000000000000CF
:1001300000000000000000000000000000000000BF
:1001400000000000000000000000000000000000AF
:10015000000000000000000000000000000000009F
:10016000000000000000000000000000000000008F
:10017000000000000000000000000000000000007F
:10018000000000000000000000000000000000006F
:10019000000000000000000000000000000000005F
:1001A000000000000000000000000000000000004F
:1001B000000000000000000000000000000000003F
:1001C000000000000000000000000000000000002F
:1001D000000000000000000000000000000000001F
:1001E000000000000000000000000000000000000F
:1001F00000000000000000000000000000000000FF
:10020000354936480A1A02D0072291438D463449AF
:1002100034480A1A06D00722914381F30988022242
:1002200082F3148830483149314A00F044F83148AB
:100230003149324A00F03FF831483249324A00F041
:100240003AF832483249334A00F035F832483349F7
:10025000334A00F030F833483349344A00F02BF881
:1002600033483449344A00F026F8344834490022EF
:1002700000F02CF833483449002200F027F83348C6
:100280003349091A082902DB002202604160314A21
:1002900090471F481F49884205D00268043003B4C4
:1002A000904703BCF7E700208646EC46002000217B
:1002B000294A9047FEE7884207D0521A05D00378B2
:1002C00001300B700131013AF9D17047884202D0F8
:1002D00002700130FAE770470000012000E00020C2
:1002E00000000120000001208844000000000020E0
:1002F0003C000020D0030000D00300003C3F000081
:10030000884400000000002000000020A83F0000FA
:10031000A83F0000A83F0000A83F0000A83F000041
:10032000A83F0000A83F0000A83F0000884400004C
:10033000C44400003C0000203C0000203C000020A1
:10034000FC090020FC090020FC090020FC09002019
:10035000FC2900209D030000F92C0000FEE7FEE7C9
:10036000FEE7FEE7FEE7FEE7FEE7FEE7FEE7FEE765
:1003700000F002B8FFF7FCBF0F484FF007018843B9
:1003800085460E4880470E48016841F470010160BF
:10039000BFF34F8FBFF36F8FFFF732BF09480A4992
:1003A0000A4A884207D0521A05D0037801300B70F0
:1003B0000131013AF9D1704700000120092E0000F7
:1003C00088ED00E0A83F00000000002000000020B1
:1003D000037813F0040216D003F00303012B03D0BB
:1003E000022B09D0012070470A6800880232C0F34E
:1003F000831002440A60F5E70B684288023303EB7E
:1004000092130B60EEE71046704700002DE9F04FA5
:10041000DFF810A10F4685B00446861C0020154663
:1004200000F00AFDDAF804203A60DAF8083003F543
:1004300080739B1A0AF21C470AF583690AF2144872
:10044000B34219D30020002D68D004F00F039B01A4
:1004500043F0050363F30F00DAF80430DAB2033235
:1004600033444AF822000020CAF8043000F0E6FCC9
:10047000012005B0BDE8F08F0121384600F003FDF2
:10048000484600F018FD404600F015FDDAF8080077
:100490000090C0B203300AEB80006946FFF798FF76
:1004A000009B30BBDAB20AEB8202D16801919A1C40
:1004B0000133DBB20AEB83030092D3F80CB001F0F6
:1004C0000303012B22D0022B15D08346404600F0B7
:1004D000F5FC10B1009BCAF808305946384600F0C8
:1004E000D2FCDAF80830DAF8042003F580739B1A9E
:1004F000A6E7D8B2CEE7BDF80630C3F389130333BD
:100500004FEA1B4B02EB93030093DFE7BDF8043087
:10051000C3F383134FEA1B4B1344F5E7A40544F0E0
:10052000060099E70C010020064B074810B5002291
:100530001A7000F02AFF044610B9044800F092FF38
:10054000204610BD0C010020943F0000C03F000079
:1005500030B50A4C71B10A4A0A49121BD20800236D
:100560009A4201D1002030BD31F82350854202D09B
:100570000133F5E7034654F83300F4E73C3F00004D
:10058000743F000000000020094B013903EBC0005C
:10059000032909D8DFE801F00A02040604207047A5
:1005A00000797047407970470020704702207047FB
:1005B0003C3F000070470000034BD3E90130C31AF1
:1005C00058425841704700BF0C0100202DE9FF41FF
:1005D000FFF7F2FF0546002840F0E980754CC4F8AB
:1005E0001804BFF34F8FA3680093DBB2033304EB0F
:1005F00083006946FFF7ECFE009B18B1D4F818247D
:10060000002A5AD0DAB2991C013304EB8202DBB221
:1006100004EB8303D268DB68029302F00303022B2E
:100620000192009154D1BDF806306348C3F3891795
:10063000502F3E4628BF502606F1080166F38F135F
:10064000C1F30901ADF8063000F0B7FE05460028F9
:1006500000F0988000F0E0FE0023082201A928465F
:1006600000F0ECFE0099CB43DBB20133C9B2033199
:10067000B6EB830F4FEA830204EB810125D95FFAC1
:1006800082F80823A6EB0806284600F0D7FEF6B24B
:1006900008F10803494903F0FC033246284600F0FC
:1006A000CDFE009B033703EB97070097D4F818346F
:1006B000002B43D1D4F8106453E062689A4294D876
:1006C000A260284604B0BDE8F08108233246E5E781
:1006D000012B57D1BDF804303748C3F383110629E5
:1006E00028BF062161F38913023101F00F0189004F
:1006F000ADF8043000F061FE0546002842D000F05D
:100700008BFE0023082201A9284600F097FE002650
:10071000BDF80420C2F38312B300964203F108032C
:10072000C4D200994A1CC9B20331009204EB810182
:100730000422284600F082FE0136E9E7284600F050
:100740006FFEFFF739FF80F00100C5B2B9E7F3682B
:100750005B7923B1336829461B6830469847F368B4
:100760001E68002EF3D1284600F05AFE304600F0F5
:1007700063FBD4F818340BB9009BA360002000F091
:100780005DFBDEE7D4F8104454B90D4B0D480E491B
:10079000C01AC008000440F0020000F05FF8D0E783
:1007A000236820469B689847E3681C68ECE70025AF
:1007B00087E700BF0C010020943F000018010020D3
:1007C0003C3F00006C3F0000A83F00002DE9F347CC
:1007D00004460E46924601A9012218469946FFF7A3
:1007E00015FE1C4F10B3019D4FF00008AA1CC84510
:1007F00008EB020125D11848002100F021FB80F30D
:100800001000000440EA1440E4006B1C04F03804BB
:10081000DBB2EDB244F0010407EB8303033544EA95
:10082000881444EA8624D86047F825403B781BB1F9
:10083000FFF7CCFE0028FBD1FFF7BCFE02B0BDE8FD
:10084000F087C9B207EB81015AF82830CB6008F174
:100850000108CCE70C0100202805002000231A46DF
:10086000FFF7B4BF07B50123019201AAFFF7AEFF5E
:1008700003B05DF804FB000030B50F4CD4F8102431
:1008800003460020114631B9D96808714AB9C4F845
:1008900010340A6030BDC9680D79854206D00968F8
:1008A000F1E7D26814680C601360F3E701300A289E
:1008B000E8D14FF0FF30EDE70C01002038B5084BD0
:1008C0000125D3F810441D7004B938BDE3685D718B
:1008D000236820465B689847E3681C68F4E700BF1C
:1008E0000C01002030B5C38885B004460D4633B1F5
:1008F000144A00921449154A284600F039FB217A1F
:1009000005291DD0637A4BB1A088FFF73DFE104B3F
:10091000104953F82020284600F02AFB227A0E4B7B
:10092000A08853F8222003920021FFF711FE039ABA
:100930000A490346284605B0BDE8304000F018BB20
:1009400005B030BDEC3F0000D43F0000CC3F0000BC
:1009500058400000F13F00007C400000F43F0000E0
:1009600007B503460846197A052911D05B7A2BB1E1
:10097000094A0A49019000F0FBFA019808490190E0
:1009800000F0F6FA019803B05DF804EB00F0E5BA68
:10099000002AF8D0F2E700BFEC3F0000F13F000072
:1009A000E93F00002DE9F04385B01F460C9D002370
:1009B00095F80C902B7306460C469046294638460F
:1009C000FFF790FFB8F1060F09D8DFE808F004122E
:1009D000181F283340003146284600F0C9FA00228B
:1009E00029463846FFF7BCFF85F80C9005B0BDE8F6
:1009F000F08322683146284600F0BAFAEFE7D4E9DE
:100A000000233146284600F0B3FAE8E7A3680093D4
:100A10003146D4E90023284600F0AAFADFE7E3686C
:100A20000193A36800933146D4E90023284600F0DF
:100A30009FFAD4E723690293E3680193A3680093C4
:100A40003146D4E90023284600F092FAC7E76369EB
:100A5000039323690293E3680193A36800933146EB
:100A6000D4E90023284600F083FAB8E708292DE9E5
:100A7000F74F80460E4617461C463DD800251B7B87
:100A80002573214610460193FFF72CFFDFF88CA059
:100A9000DFF88CB0AE4232D918F80520594620460E
:100AA00000F066FA0135082DF4D11B49DFF874A077
:100AB000DFF874B0204600F05BFA4FF000094E45B5
:100AC00024D918F809507E2D1ED8284602F090FE31
:100AD000002814BF2A462E225946204600F048FA24
:100AE00009F10109B9F1080FE9D10122214638467F
:100AF000FFF736FF019B237303B0BDE8F08F51462B
:100B0000204600F035FACDE72E22E5E75146204693
:100B100000F02EFAE4E700BF0840000004400000A7
:100B2000FE3F0000064000000A40000038B50A4DB4
:100B300000F051F804212846FFF79EFE074B0124E0
:100B40005C7100F021F9042105F11000FFF794FE1B
:100B5000034B5C7138BD00BF743F000000000020F3
:100B6000080000207047000007B5044B0093044ABA
:100B7000402300F032F803B05DF804FB850B000061
:100B8000C50500202DE9F84388461446B2B10F4B45
:100B90000F4E0325002743F00109224608EB070109
:100BA000002002F0FBFA0744241A48B933782BB12D
:100BB0004FF47A40C847013D02D13570BDE8F88353
:100BC00001233370002CE8D1F8E700BFC0400000DB
:100BD000C4050020704702F02BBBF0B595B01D4650
:100BE000164608460C4600F017FC1A9B0D93CDE9FB
:100BF000086500252B46082205A920460A958DF890
:100C00002C500C9500F024FC079B0293069B039349
:100C10009DF814308DF8115003F00302012A1DD104
:100C2000BDF81420059DC3F3C203C2F383168DF8EB
:100C30001030B20008230EA9204600F009FCC5F3CD
:100C4000952508AB0093324602AB0EA92846FFF764
:100C5000A9FE204600F0E4FB15B0F0BD022AF8D151
:100C6000BDF81650C3F3C203C5F389158DF81030D3
:100C70000827082D2E4628BF08263B4632460EA9D7
:100C8000204600F0E5FBAD1B08AB02AA31460EA8DA
:100C90003744FFF7EBFE002DEBD1DAE7014B0122E1
:100CA0001A707047460600207047000070B50E4D60
:100CB00006460FCD88B06C460FC495E80F00002E95
:100CC00084E80F00094A0A484FF0060308BF0022D3
:100CD0006946009301F058FA08B100F058F8054B46
:100CE0001E7008B070BD00BFD44000009D0C000015
:100CF000100000200506002007B5044B0093044AAD
:100D00004023FFF76AFF03B05DF804FB150D0000F8
:100D10000606002038B50D480D4C0E4D00232370FB
:100D20000378EB5CD2B263B1043001F0C5FE08B1C8
:100D300000F02DF8084B1A7812B12378002BFBD065
:100D400038BD0C3001F066FCF1E700BF1000002058
:100D500046060020100700200506002008B50848B8
:100D6000084A0378D35C3BB1043001F009FEBDE8CA
:100D700008400020FFF79ABF0C3001F0D5FBF6E7E2
:100D800010000020100700200120FFF78FBF1FB5C3
:100D90000021039001AA44F20100CDE9011100F005
:100DA00003F805B05DF804FB38B572B6FFF786FDB1
:100DB000FFF70CFC0028FBD1104B114C114D1249D0
:100DC000E41AE408240444F00100FFF747FDD5F8D5
:100DD000F030DB0700D500BE0C4944F00200FFF7FD
:100DE0003DFDBFF34F8FEA68094B02F4E062134305
:100DF000EB60BFF34F8F00BFFDE700BF3C3F00003B
:100E00006C3F000000ED00E0004100000C410000DC
:100E10000400FA0572B6024A136801331360704782
:100E200048060020034A1368013B136003B962B609
:100E3000704700BF48060020FFF7ECBFFFF7F2BF86
:100E400010B5034653E8000F0A4643E8002494F027
:100E5000000FF7D110BD10B5034653E8002F42EA4A
:100E6000010043E8000494F0000FF6D110BD10B566
:100E7000034653E8000F00EA010243E8002494F01F
:100E8000000FF6D110BD10B5034653E8002F02EB5A
:100E9000010043E8000494F0000FF6D110BD10B536
:100EA000034653E8002FA2EB010043E8000494F04E
:100EB000000FF6D110BD0121FFF7CDBF0021FFF7D4
:100EC000D6BF10B590B1D0E9012301689B1ADBB2FF
:100ED0000A60013BDBB2FF2B026802D100201071D7
:100EE00010BD11684C1C14600B70F2E70E20F7E780
:100EF00038B504460020FFF79FFF22686368116839
:100F0000994213D9481E106011F8013CE568218A06
:100F100001FB0355A36811791B1ADBB2994200D279
:100F200013710020FFF78AFF284638BD0025F8E737
:100F300038B5054600200C46FFF77EFF2A68136887
:100F4000591C1160E968641A298AB4FBF1F41C7019
:100F5000BDE838400020FFF771BF826810B5044635
:100F60002AB143690168006998470023A36010BD56
:100F70000EB403B5039921B104AB01AA019300F0AB
:100F800077F802B05DF804EB03B070470A2938B572
:100F900004460D4602D10D21FFF7F8FFA368226831
:100FA000591CA160D554D4E901329A4204D3204699
:100FB000BDE83840FFF7D1BF38BD00002DE9F84F3C
:100FC0009846DDE90A43154682460F460A464FF029
:100FD0000109AA420FD2C14538BFC14613F0010B27
:100FE00001D16CB900240126B8F1010F1BD908F119
:100FF000FF386E43F8E709F10109B2FBF5F2E8E7C3
:101000009B070ED5B8F1000F0CBF30262026A14556
:10101000E9D2013C31465046FFF7B8FF002CF6D12B
:10102000E0E72026F3E7B7FBF6F39D42E1D9DFF8CE
:101030003C80B7FBF6F3504618F8031006FB137715
:10104000FFF7A4FF3346AB42B6FBF5F6F1D2BBF196
:10105000000F02D00CB1A14501D3BDE8F88F2021CB
:101060005046013CFFF792FFF4E700BF1941000032
:101070002DE9F74F054617468846002900F03E81C6
:1010800018F8011B49B92B7B002B00F0378128464B
:1010900003B0BDE8F04FFFF760BF252940F0B780EF
:1010A000002698F800302D2B424608F1010823D085
:1010B000302B24D02B2B25D000242A2B02F1010128
:1010C00023D13B681A1D1B683A601C440A461378FA
:1010D0002E2B26D101324FF0000A104610F8011BCA
:1010E000A1F1300CBCF1090F1DD80A2303FB0A1330
:1010F000A3F1300A0246F0E746F00106D1E746F0D8
:101100000206CEE746F00406CBE711F8013CA3F156
:1011100030000928DBD80A2202FB0434303C0A469E
:10112000CBE74FF0000A12F8011B01F0FB00682822
:101130009046F8D0782909D86F290CD8632962D055
:1011400022D8252963D0582900F0888098F80030EB
:10115000002B95D197E770390829F7D801A353F8E8
:1011600021F000BFD71200004D1100004D1100000A
:101170006D1200004D1100004B1200004D110000D7
:101180004D1100005D120000642901D06929DDD1F4
:101190003A68D2F80090111D89EAE9723960A2EB31
:1011A000E9724FF0010B092A35DCD34538BFD3462D
:1011B0002CB1B9F1000F01DB720700D5013CB30778
:1011C00002D5BAF1000F03D0F00701D44CBB0024C4
:1011D000B9F1000F2DDAC9F100092D212846FFF7DA
:1011E000D5FE06F00302022A04D1BAF1000F01D1A4
:1011F0001CBB0024CDE9004653460A224946284636
:10120000FFF7DCFEA2E73B681A1D19783A60284612
:10121000FFF7BCFE9AE70A230BF1010BB2FBF3F2D6
:10122000C1E7A345D4D220212846013CFFF7AEFEFA
:10123000CCE77107D5D52B21D0E7A345DAD23021F1
:101240002846013CFFF7A2FED2E73968CDE9004607
:101250000A1D3A6053460A220968D0E739680A1D18
:101260003A60CDE9004653461022F5E73B681A1D67
:101270003A6016F00106D3F8009024D1B9F1000FBE
:1012800003D0484602F02BFB0646B4421DD809F1B4
:10129000FF3919F8011F00293FF458AF2846FFF71E
:1012A00075FEF6E728460136FFF770FE19F80610BE
:1012B0000029F7D1A642BFF449AF20212846013CBE
:1012C000FFF764FEF6E70026F0E720212846013C00
:1012D000FFF75CFED9E73B681A1D3A6030212846CB
:1012E0001C68FFF753FE78212846FFF74FFE0022C7
:1012F0000823CDE900322146102280E703B0BDE883
:10130000F08F00BF2DE9F84FB0F806A04579D2F86C
:1013100000B09DF828900AFB05F5043D88460BEBCC
:101320000301A94203F1040488BFA5EB030BB4FB3E
:10133000FAF607460AFB1644C2F800B04EB9AAEB0B
:1013400004055D4528BF5D46BBF1000F04D1BDE833
:10135000F88F3F68013EF1E7043408EB06003C4497
:101360002A46B9F1000F0DD02146ABEB050B02F078
:101370006BFADA452E443F6855464FF0000428BF0B
:101380005D46E1E701462046EFE7FFF79ABDF8B575
:1013900046790146721E0546002393422D6803D309
:1013A0000024A64202D8F8BD0133F6E70F682846AC
:1013B000FFF7BEFD01343946F3E72DE9F843068A0D
:1013C000CD1C0746FFF794FD043E35440446B5FBAB
:1013D000F6F5F0B14FF48073EDB28380C680013D25
:1013E000076081464FF00008A84512D23846FFF743
:1013F0007FFD064648B163790133637108F1010846
:10140000C9F8000007608146EEE72046FFF7BFFFFE
:1014100034462046BDE8F88301210430FFF733BD90
:1014200010B5012104460430FFF739FDC0B220B9E0
:101430002046BDE81040FFF7AABF10BD1FB50392BC
:101440000022009203AAFFF75DFF05B05DF804FBE0
:101450001FB503920122009203AAFFF753FF05B0C4
:101460005DF804FB836800225A60C3E904229A6095
:10147000DA601A6070470000F7B506792F4D0C232B
:101480007343EF183C7A002C55D1EA504B687B60CF
:10149000477903682246A446D4B2A7423CD8CA780A
:1014A00043F307345201002CC3F30733D2B23DDBC0
:1014B000234F07EB040C8CF800230122640903F08E
:1014C0001F0302FA03F347F8243003684A78D3F87D
:1014D000040502F0030220F003000243C3F80425D0
:1014E000D3F808058A7820F0030002F003020243D3
:1014F000C3F80825D3F810050A7820F00F0102F090
:101500000F020A43C3F810250C2303FB06550123E1
:101510002B72002003B0F0BD940004F5A0740132DA
:1015200043F804C01C590194019CB5E7054C03F035
:101530000F03E254C9E70820ECE700BF4C06002087
:1015400000E100E014ED00E0036801221A60027976
:10155000034B0C2101FB023302221A72704700BFB9
:101560004C06002037B54FF4803400688C407BB1C6
:101570008B0003F5A0730025C550C3580193019B50
:10158000C0F8044301F5A87140F8212003B030BD34
:10159000C0F80843F6E770B4046840F20116D4F8C6
:1015A00000528E4025EA0605C4F80052D4F80052D5
:1015B0002B43C4F800329DF80C3070BCFFF7D2BF4B
:1015C0002DE9F341104C114F114E00254FF4803896
:1015D000236883B1D7F8043308FA05F21A420AD017
:1015E0000023236023680193A4F50040019B80B28F
:1015F000D6E9003198470135042D04F10404E7D100
:1016000002B0BDE8F08100BF408100400080004092
:101610004C06002000F1804000F5E040002382B03D
:10162000036003680193019B02B07047F0B5524B11
:10163000524CD3F8043185B0002B3DD094F82E20C5
:101640004FF48270FFF7E6FF2AB394F82F3013BBF4
:10165000494AD2F80031002B32D04FF48070FFF7A6
:10166000D9FF638B94F82D00834250D921891B1A2E
:101670009BB289B26383CB1A616801EB4303C2F862
:101680002C36C2F830064FF48270FFF7C3FF3A4B96
:1016900001225A6014E0636802932389ADF80C308C
:1016A000E36800218DF8041033BB2374236801A87C
:1016B0009847002384F82F3094F82E30002BC7D1A0
:1016C0002D4BD3F810315BB14FF48870FFF7A2FFB8
:1016D0000023237402238DF8043001A8236898475F
:1016E000254BD3F81431EBB14FF48A70FFF792FF1A
:1016F0000023237405B0F0BD208B608363602081DC
:10170000E160002AD2D11C4B01221A60CEE7BAD187
:10171000E368012184F82F1013B100216183AEE743
:101720006383B0E766694FF000470125002EE1D0E2
:10173000B6FA86F227FA02F34632920026EA030648
:1017400002F1804303F5E0431B68002BEED0104606
:10175000A2F58C72FFF75EFFD30882F00402C2F399
:1017600080028DF808308DF8045023688DF8092028
:1017700001A89847DAE700BF007000405806002033
:1017800038B5204A92F82C300446002B37D111602E
:101790001D490078C1F8F0056078C1F8F40501250D
:1017A000E078137482F82D30536182F82F306FF097
:1017B000004382F82E0082F82C504FF48270C1F85A
:1017C0000833FFF727FF4FF48070FFF723FF4FF434
:1017D0008A70FFF71FFFA3780C485B01DBB280F82B
:1017E0000733802303600223C1F8043392F82E30BC
:1017F0000BB1C1F80453C1F80055002038BD0820D2
:10180000FCE700BF580600200070004000E100E047
:1018100070B52A4B1A7C02F0FF05002A4BD10A79D9
:10182000012A9CBF264CC4F8005500F10C0503EBBF
:101830004504247924B993F82D40013483F82D40D0
:1018400003EB4503CC790D7A8E781C715D714B7872
:1018500036021B0106F4E06603F0300333430E78D2
:1018600006F003063343CE78360306F4805633433E
:10187000160406F4E02633434E798979360506F4DA
:1018800080160906334301F080710B430C4901EBCC
:101890000016000100F1804000F5E040012AC6F882
:1018A0001835C0F81455C0F8104502D80123C1F806
:1018B0000035002000E0112070BD00BF5806002058
:1018C0000070004070B5324A147C04F0FF03002C15
:1018D0005CD1304C012503261574C4F80863C4F8A4
:1018E0002C16C4F8305692F82D40AC420CD91D4647
:1018F000190101F1804101F5E0410133082BC1F8E4
:101900001455C1F81055F3D100F10C03000102EB9E
:10191000430300F1804000F5E04019795B79C0F89D
:101920001435C0F810151B4901230B604B6042F2BF
:101930001073D1F8040108B9013BFAD14FF480705B
:10194000FFF768FE4FF48270FFF764FE012C11D997
:101950000F4800210B0103F1804303F5E0430131FF
:10196000047F457FC3F814550829C3F8104500F1DA
:101970000200EFD192F82E10064B29B1032100206E
:10198000C3F80413107470BD0221F8E71120FAE7C0
:1019900058060020007000400023435082B0435896
:1019A0000193019B02B070470B7B032B2AD8DFE821
:1019B00003F022261A028B685A0304D5D0F84C355E
:1019C0000A699A4207D18B685B031BD4D0F84C3567
:1019D0004A699A4216D000230622C0F80035C0F8A2
:1019E000002518467047D0F84C350A699A42F2D162
:1019F000D0F83C35ECE7D0F84C350A69E9E7D0F887
:101A00003C35FAE701207047F0B5D0F8243187B0B3
:101A100004460D46EBB14FF49271FFF7BDFFD0F8CD
:101A20000431B3B9AB68C0F808330223AB60AB68CC
:101A3000C0F80433D0F860311BB1D0F800329B05F8
:101A400002D4012323626361012385F82E3007B09D
:101A5000F0BDD4F80431002B41D04FF48271204600
:101A6000FFF79AFF2B6A5F0609D495F82E3033B939
:101A70002946FFF799FF80F0010085F82E002B6AB8
:101A80005E073ED405F10C070FCF01AE0FC63B68D1
:101A900033604FF4B0712046FFF77EFF4FF4AE7114
:101AA000FFF77AFF95F8303013B195F82E3043B335
:101AB0000023C4F80032AB602F4BC4F8083344F362
:101AC0000733002B4FEA14321BDB02F01F015B09C6
:101AD00001228A406033294941F8232011E04FF464
:101AE000A4712046FFF758FF2B7B23BB05F10C07A1
:101AF0000FCF01AE0FC63B68336095F83030002B36
:101B0000D7D0D4F8C434C4F8C434980725D50123F9
:101B10008DF8003095F830300BB985F82F302B6AEE
:101B20005B0703D595F82E30002B90D0D5E9003116
:101B3000684698478BE74FF40073C4F8003240F2D0
:101B40000223AB6003F1CE73C4F80833AB68C4F86A
:101B500004330123A360236279E7590701D50223E7
:101B6000D6E7DA0701D50323D2E795F82E30002B0C
:101B7000CED00423CCE700BF02029C0100E100E0CC
:101B800001490248FFF740BF8806002000300040AE
:101B900002494FF04020FFF737BF00BFBC060020CE
:101BA0002DE9F84F0679314D4FF0340A0AFB06FA59
:101BB00005EB0A079B4697F82D3080460C46914668
:101BC000002B4FD12A4B006853F8261000F080FA02
:101BD000002849D12168637B87F8323001F5E07233
:101BE0004FF0A043B860C7F804B087F82F0087F81B
:101BF000300040F20C6745F80A9043F822706268A2
:101C000002F5E07C43F82C70D8F80030C3F80815D2
:101C1000C3F80C25A268C3F82425B9F1000F14D02D
:101C2000227B43F3073152010029C3F30733D2B2B9
:101C300013DB104C671887F800230122490903F0D1
:101C40001F0302FA03F344F82130342303FB065543
:101C5000012385F82D30BDE8F88F074903F00F0305
:101C6000CA54F2E70820F6E71120F4E788060020BE
:101C70003C41000000E100E014ED00E0036802795F
:101C80000621C3F80015044B342101FB0233022264
:101C900083F82D20704700BF880600202DE9F84307
:101CA000DFF8C88290F804900468342606FB0986A1
:101CB000002386F82E30CB6803F06043B3F1005F59
:101CC0000D46174603D010263046BDE8F883A64BD4
:101CD000C4F8083396F82F3023B1B368C4F804333E
:101CE0001126F1E712F0140F0CBF0123002386F830
:101CF0002F308E46BEE80F0006F10C0CACE80F004A
:101D0000DEF80030CCF80030C7F3001386F830302E
:101D100037626B78C4F8883520464FF48271FFF73C
:101D20003BFE4FF49271FFF737FE4FF4B071FFF7AF
:101D300033FE4FF4A471FFF72FFE17F0010318BF15
:101D40000123C4F8503517F0020318BF0123C4F86B
:101D500040352B78032B00F2B580DFE803F084A038
:101D600069022B6903F06043B3F1005FABD14FF41C
:101D70008073C4F80032EA686B68C4F844254FF4F5
:101D8000A871C4F84835FFF707FE01232362A3605A
:101D9000D4F85031002BFBD04FF4A8712046FFF748
:101DA000FBFDAB682A69C4F84425C4F848353423E0
:101DB00003FB09834FF480229A60082300263A0728
:101DC00004D42A78032A1CBF0122E250342303FBE7
:101DD00009F308EB030258F80330002B75D10125F5
:101DE000D4F84821D4F80431002B40F08980003A1F
:101DF00018BF0122D4F82431002B00F088804FF462
:101E000092712046FFF7C8FDD4F86011D4F8003273
:101E100009B1980504D4256265610029E0D000224B
:101E2000D90574D54FF4A4712046FFF7B5FDD7E767
:101E30006B68EA68C4F84425C4F848352B6903F098
:101E40006042B2F1005F7FF43EAFAA68C4F8343557
:101E50004FF48453C4F83825C4F80032342303FB0C
:101E60000983022212E06B68EA68C4F8442517F07F
:101E7000200FC4F848354FF034030BD04FF4807274
:101E8000C4F8002203FB09834FF480229A600123E7
:101E9000236292E74FF40072C4F80022DFE76B6818
:101EA000EA68C4F83425C4F838354FF48053C4F8D0
:101EB0000032342303FB098302229A600123236248
:101EC00000237BE70823072679E77B0744BF00232D
:101ED00093607D0606D4342303FB09839A6842F09D
:101EE00002029A60342303FB0988D8F8083043F4CF
:101EF0000073C8F80830D8F80830C4F80433E3E6B3
:101F00004FF482712046FFF747FD012272E7002A55
:101F10003FF466AF3421D4F8C434C4F8C43401FBB0
:101F20000982002082F82F0093B113F0010F14BF33
:101F30004FF40246032648F2012213F0020F18BFA5
:101F4000164613F0040F48F2022318BF1E46BBE6E4
:101F50007B063FF5B9AE09FB01812046FFF724FD62
:101F6000002808BF0326AFE602029C018806002075
:101F700010B586B0012402930023CDE903328DF819
:101F800005101A4601A98DF804400593FFF786FE57
:101F900006B010BD1FB503788DF800308388ADF80A
:101FA000043083688DF80630C3688DF80730036904
:101FB00002934369054A0393054B684653F8213061
:101FC00052F82110984705B05DF804FBF006002098
:101FD000F8060020024B4FF4807043F001031847CD
:101FE000504100002DE9F047154690F80090324A24
:101FF00042F82950314A42F829304B7B07460C46BB
:102000006BB30868496882008B0002F1A04203F1BB
:10201000A04340F20C66C2F800674FF0010AC3F813
:1020200000674FF0A0460AFA00F00AFA01F1C6F87C
:102030000805C6F8081540F20D61C2F80017C3F88C
:102040000017FFF7C7FF4FF00008D6F810256368A8
:1020500022FA03F3DB070DD5B8F1000F1DD1002DD7
:10206000174A4B4608BF2A462146381DBDE8F047AF
:10207000FFF796BD23680AFA03F3C6F80C35FFF79D
:10208000A9FF23680AFA03F3C6F8083508F1010826
:10209000FFF7A0FFB8F1090FD7D1636801264FF011
:1020A000A04806FA03F3C8F80C35FFF793FF6368FE
:1020B0009E40C8F80865D2E7F8060020F006002028
:1020C000951F0000014B1B68184700BF0007002048
:1020D00038B50B4B98420C4601D0002038BD00208B
:1020E000FEF7AAFE074B1D7915B901221C601A7173
:1020F0000020FEF7A3FE002DEFD01120EEE700BF79
:102100000020004000070020034B984201BF034B12
:1021100000221A601A71704700200040000700205A
:102120001FB503788DF800304368019383688DF8FC
:102130000830C368054A0393054B684653F82130BD
:1021400052F82110984705B05DF804FB08070020FD
:102150000C0700201FB503788DF800304368019309
:1021600083688DF80830C368054A0393054B6846B9
:1021700053F8213052F82110984705B05DF804FB60
:10218000080700200C070020F0B5194B90F800C09C
:1021900091F81DE043F82C20164B16460A6943F8C7
:1021A0002C20154B03F80CE00C4607460FCC89B0E9
:1021B0006D460FC594E80F0085E80F00CDF810C0FC
:1021C000BEF1000F09D0002E0C4A694608BF324606
:1021D000381D00F013FB09B0F0BD002E084A694617
:1021E00008BF324607F10C0000F0EAF8F3E700BF41
:1021F0000C07002008070020100700202121000004
:10220000552100000023435082B043580193019BA5
:1022100002B070470A4610B54FF48E71FFF7F2FF17
:10222000136A9168C95C136A01331362C0F81C1504
:1022300010BD8B690A4610B54FF4847123B9FFF7BE
:10224000E1FFD0F8183510BDFFF7DCFF536AD16805
:10225000D0F81805C854536A01335362F3E70000FD
:102260001FB501238DF80030044BCDE90110D3E9EF
:1022700000126846904705B05DF804FB1407002083
:1022800030B54D4DD5F804339A0585B051D5D5F804
:102290002431002B4DD04FF492712846FFF7B2FF46
:1022A0004FF40173C5F80833444B93F829200AB959
:1022B00001226A60404902228DF80020D1F8802472
:1022C000C1F8802403929A690292DA68019200228E
:1022D000C3E906226846D3E9001290473648D0F891
:1022E0001C315BB1354A5169136A99424DD992F854
:1022F0002830002B49D11146FFF78CFF2E48D0F82B
:102300004431002B56D04FF4A271FFF77BFF2B4BCB
:1023100093F829200AB1012202609A69002A49D063
:10232000586AD96800229A6105B0BDE83040FFF7CD
:1023300097BFD5F804335B07D0D5D5F80831002B0B
:10234000CCD01E4C1C482146FFF773FF636AA2697C
:102350009A42C3D1E369E1684BB1A3612369E360A9
:102360000023606AE3616362FFF77AFFB6E794F8DF
:1023700029300BB901236B600F4B4FF40172C3F886
:1023800008230023606AA361EEE70B484FF48E71C7
:10239000FFF738FF5369002BB0D051690291002339
:1023A00091688DF80030019153616846D2E90013BD
:1023B0009847A3E705B030BD002000401407002077
:1023C0002DE9F843534D90F804802C2303FB085368
:1023D000064693F82A300C469146002B40F0968032
:1023E0004D490068FFF774FE0746002840F09080D2
:1023F00022683068511C0BD04FF0A041012393405C
:10240000C1F8083502F5E0734FF0030C41F823C022
:1024100061684B1C1FBF01F5E0734FF0A04C4FF0FB
:10242000000E4CF823E0A369C0F8243594F814C0DA
:10243000637DBCF1010F4CEA0303C0F86C35C0F8B2
:102440001415C0F80C251DD1A268531C1FBF02F53E
:10245000E0734FF0A0414FF0000C41F823C0E36857
:10246000591C0BD04FF0A04C01219940CCF8081515
:1024700003F5E0714FF0030E4CF821E0C0F8083589
:10248000C0F810252C2202FB08F2AB18C3F8049008
:102490002369AB50B9F1000F20D04FF48E71247F27
:1024A000FFF7B0FE4FF4A2713068FFF7ABFE326861
:1024B0001A4BC2F80433130B42F307326101002AAE
:1024C000C9B21EDB1648841884F800130121520992
:1024D00003F01F0301FA03F340F8223033680422AB
:1024E000C3F800252C2303FB08530022C3E906226E
:1024F00083F829205A61012283F82A203846BDE852
:10250000F883084A03F00F03D154E7E70827F5E7FB
:102510001127F3E714070020812200008000020049
:1025200000E100E014ED00E0F8B503680579304CF7
:102530000022C3F800252C2202FB05425268A2B1FA
:102540002C4AC3F808231A0B43F30733002B0CDB88
:1025500002F01F015B0901228A402033264941F81D
:102560002320BFF34F8FBFF36F8F0068D0F80C6547
:10257000D0F81415D0F80835D0F810254FF0FF37F3
:10258000BE42C0F8147518BF06F5E076C0F80C75A9
:10259000C0F80875C0F810751EBF4FF0A0474FF087
:1025A000020C47F826C04E1C1FBF4FF0A04601F595
:1025B000E071022746F82170511C1FBF4FF0A04167
:1025C00002F5E072022641F822605A1C1FBF03F593
:1025D000E0734FF0A042022142F82310FFF794FD70
:1025E0002C2303FB0544002384F82A306360F8BDE4
:1025F000140700208402020000E100E00279044B8D
:102600002C2101FB02335869003818BF01207047A4
:10261000140700202DE9F84F064690F804808946FB
:102620009246FFF7EBFF044600283CD1204F2C25B3
:1026300008FB057B4FF48E71CBF814A0CBF8089003
:10264000CBF820008BF828003068FFF7DBFD3068FE
:10265000012383605946FFF7DDFDDBF804305D465A
:102660001BBB3068DBF814402B6A9C4211D83368DE
:10267000D3F81C21002AFBD00122DA6000202C2391
:1026800003FB087700237B61BDE8F88F95F82830BD
:102690003BB9D0F81C31002BF8D05946FFF7BAFDF2
:1026A000E2E70F20EBE71120EEE72046ECE700BF62
:1026B000140700200023435082B043580193019B2C
:1026C00002B070471FB501238DF80030044BCDE9EF
:1026D0000110D3E900126846904705B05DF804FB8D
:1026E000400700207FB5434AD2F82461002E60D015
:1026F00010464FF49271FFF7DDFF02238DF8003092
:10270000D2F88034C2F880340393D2F83C35029377
:10271000394BDA6801920022C3E906226846D3E900
:10272000001290473348D0F8443173B14FF4A2718E
:10273000FFF7C0FF304B9A693AB10022C3E9062285
:10274000D968D0F83C05FFF7BDFF2A48D0F8203102
:10275000ABB14FF49071FFF7ADFF0123C360264B7F
:102760005A6962B1D0F84C150291002299688DF82F
:10277000002001915A616846D3E9001290471D4834
:10278000D0F858319BB14FF4AC71FFF793FF1A4B5F
:102790005A6962B1D0F84C150291002299688DF8FF
:1027A000002001915A616846D3E90012904704B0B5
:1027B00070BDD2F81031002BB4D04FF488711046A0
:1027C000FFF778FF0C4BD2F83C0599698842A9D1F4
:1027D000DC69D96864B1D2F8005225F02005C2F84E
:1027E00000521A699C61DA60DE61FFF76BFF99E7BE
:1027F0009C61FAE700200040400700202DE9F843E3
:102800005A4E90F80480242303FB0863044693F88F
:1028100020300D469146002B40F0A38054490068BB
:10282000FFF756FC0746002840F09D802A68206884
:10283000511C0BD04FF0A04101239340C1F8083543
:1028400002F5E0734FF0030C41F823C069684B1C9C
:102850001FBF01F5E0734FF0A04C4FF0000E4CF895
:1028600023E0AB69C0F8243595F814C06B7DBCF14A
:10287000010F4CEA0303C0F86C35C0F80C25C0F812
:1028800014151DD1AA68531C1FBF02F5E0734FF049
:10289000A0414FF0000C41F823C0EB68591C0BD04D
:1028A0004FF0A04C01219940CCF8081503F5E071D8
:1028B0004FF0030E4CF821E0C0F80835C0F81025A1
:1028C000242202FB08F2B318C3F804902B69B3501A
:1028D000B9F1000F2FD04FF488712A7FFFF7EAFE7D
:1028E00020684FF49071FFF7E5FE20684FF4927175
:1028F000FFF7E0FE20684FF4A271FFF7DBFE4FF414
:10290000AC712068FFF7D6FE23681A49C3F8041398
:10291000190B43F307335201002BD2B21CDB1648CC
:10292000C51885F8002301225B0901F01F0102FA96
:1029300001F140F8231023680822C3F8002524235E
:1029400003FB08660023C6E906337361012386F89A
:1029500020303846BDE8F883084B01F00F015A5487
:10296000E9E70827F5E71127F3E700BF4007002054
:10297000E52600001003420000E100E014ED00E055
:10298000F8B5444C0579242303FB054302465B68F4
:102990000068ABB1404BC0F8083340F30733002B5D
:1029A0004FEA10310CDB01F01F065B090121B14039
:1029B00020333A4E46F82310BFF34F8FBFF36F8F8B
:1029C000D0F8003223F02003C0F80032242303FBA8
:1029D00005439B692BB14FF4A271FFF76BFE0123F6
:1029E00043604FF4AC71FFF765FE0123C3602423FD
:1029F00003FB0543D0F858110029FBD0996919B1A0
:102A0000D0F844110029F5D00023C0F80035136830
:102A1000D3F80C75D3F81465D3F80825D3F810153E
:102A20004FF0FF3C6745C3F80CC518BF07F5E077CA
:102A3000C3F814C5C3F808C5C3F810C51EBF4FF0CE
:102A4000A0434FF0020C43F827C0771C1FBF4FF084
:102A5000A04306F5E076022743F826704E1C1FBF00
:102A600001F5E0714FF0A043022643F82160531CAA
:102A70001FBF4FF0A04302F5E072022143F822107D
:102A8000FFF742FB242303FB0544002384F8203096
:102A90006360F8BD400700201003420000E100E041
:102AA0000279044B242101FB02335869003818BF16
:102AB000012070474007002001F06043B3F1005F40
:102AC0002DE9F0470646884692463BD190F804909F
:102AD000FFF7E6FF0446002836D11D4F3068242555
:102AE00005FB09754FF49071C5F814A0C5F808806E
:102AF000FFF7E0FD4FF4AC713068FFF7DBFD3368A2
:102B00006A69A968C3F84415C3F8482501229A6088
:102B10006A68DAB9D3F82021D3F858011AB9002825
:102B2000F8D00F2007E00028FBD10122DA60D3F8AB
:102B30005821002AFBD0242303FB097700237B6163
:102B4000BDE8F0871020FBE71120F9E72046F7E702
:102B500040070020704700001F4A1368B0F5A07FAF
:102B600003F1010310B513602AD14FF0A0421B4CB2
:102B7000D2F80435D94301F0800103F08003C2F894
:102B800008150120C2F80C352146FEF79BFEB4F96A
:102B90000040204600F02AFD0BA3D3E9002300F0FB
:102BA00089FC0BA3D3E9002300F062FB00F032FDA7
:102BB0000B4B21461860BDE810400A4800F03ABBB4
:102BC00010BD00BFAFF30080261C7A8B87F74C3F07
:102BD0004417D4B7CCE9C23F6C0700206807002037
:102BE00064070020654100001FB513221223CDE9C0
:102BF00000234FF0CC710223CDE9021300230748D4
:102C00001A466946FFF7EEF908B1FEF7C0F8044826
:102C1000FFF734F805B05DF804FB00BFE8410000A1
:102C2000EC4100007FB5164B186859686A4603C22C
:102C3000197A1170D3F80900D3F80D105B7C03AA40
:102C400003C210491370104801238DF80E308DF81F
:102C50000230FEF795FD08B1FEF799F869460120AC
:102C6000FEF7D6FD08B1FEF792F803A90220FEF7A1
:102C7000CFFD08B1FEF78BF807B05DF804FB00BF8D
:102C8000B8410000552B0000DC410000002108B5D0
:102C90000846FDF749FC08B1FEF779F8BDE80840A1
:102CA000FDF744BF1FB50F4A92E8030002AB83E86B
:102CB00003000D4A0D481946FEF7DEFB08B1FEF78A
:102CC00066F80B4B0B49D3F8102508480123D2B204
:102CD00021FA02F200930021FEF75DFC05B05DF8D9
:102CE00004FB00BFCC410000592B0000D441000080
:102CF000008000400024F4004FF0A04303222DE99F
:102D0000F341C3F81C278022C3F80825FFF7BEFF54
:102D1000FFF788FFFFF7C6FF1E481F4C1F4EFEF748
:102D200013FCFFF761FF1E4B1E49E41AE40824045C
:102D300044F003042046FDF791FD40F6B83546F017
:102D400001064FF47A40B047013DFAD1164FDFF843
:102D50006080012601230DF10702F1B23846FFF72A
:102D600007F928B9324641462046FDF77BFD01258B
:102D7000FDF72CFC0028FBD10136802EEAD13DB9AD
:102D80000A492046FDF76AFDFDF720FC0028FBD12B
:102D900030BFFDE7D44100006C3F0000E04100007F
:102DA0003C3F000069410000EC410000A3410000ED
:102DB0007E4100004FF08053D3F83001421C04BF25
:102DC0004FF0704393F8E00F831F5842584170470B
:102DD0004FF0704393F8E02F062A09D1D3F8E83F6B
:102DE000C3F30313033B042B02D8024AD05C7047A1
:102DF0000020704707420000024AD2F80034002B3E
:102E0000FBD0704700E0014010B5FFF7D3FF40B1A1
:102E10004FF08053944AD3F82433C3F30423C2F809
:102E20004035FFF7D5FF10B1904B914A5A67FFF735
:102E3000C1FF48B14FF080534FF08042D3F8443285
:102E4000C3F34233C2F83C35FFF7C2FF30B1894AC1
:102E5000D2F8FC3023F08073C2F8FC30FFF7AAFFF1
:102E600040B14FF080430022C3F80C21C3F8102179
:102E7000C3F83825FFF7ACFF20B14FF080430322A1
:102E8000C3F8A025FFF7A4FF60B17B4B0522C3F870
:102E900010260122C3F888260022C3F818263F22F4
:102EA000C3F814264FF08053D3F83021511C09BFCA
:102EB0004FF07043D3F8343193F8E02FD3F8E83F64
:102EC00008BFC3F30313062A4DD1033B042B03D8D9
:102ED0006A4AD35C002B46D04FF08052684BD2F840
:102EE0000414C3F82015D2F80814C3F82415D2F836
:102EF0000C14C3F82815D2F81014C3F82C15D2F806
:102F00001414C3F83015D2F81814C3F83415D2F8D5
:102F10001C14C3F84015D2F82014C3F84415D2F895
:102F20002414C3F84815D2F82814C3F84C15D2F865
:102F30002C14C3F85015D2F83014C3F85415D2F835
:102F40003414C3F86015D2F83814C3F86415D2F8F5
:102F50003C14C3F86815D2F84014C3F86C15D2F8C5
:102F60004424C3F87025FFF725FF48B14FF0805384
:102F70004FF08042D3F8583203F04F03C2F8E43EDA
:102F8000FFF718FF48B14FF08043D3F80024D20771
:102F900044BF6FF00102C3F800244FF08053D3F810
:102FA0003021062A0ED1D3F83431033B042B02D84A
:102FB000344AD35C33B1344AD2F83C3743F48063AB
:102FC000C2F83C372B4AD2F8883043F47003C2F879
:102FD0008830BFF34F8FBFF36F8F4FF08053D3F81C
:102FE0003021062A0FD1D3F83431033B042B02D809
:102FF000264AD35C3BB14FF01023D3F808224FF0A0
:103000008043C3F858254FF01023D3F80022002A3C
:1030100003DBD3F80432002B22DA1D4901234FF0E1
:103020001020C1F804351524FFF7E6FEC0F8004271
:10303000FFF7E2FEC0F80442FFF7DEFE0023C1F80E
:103040000435FFF7D9FEBFF34F8F0A49114BCA6809
:1030500002F4E0621343CB60BFF34F8F00BFFDE784
:103060000D4B0E4A1A6010BD0030014000C00740F1
:103070000DF0ADBA00ED00E000500040F841000056
:1030800000C00040FD41000000100040024200006E
:1030900000E001400400FA05240000200090D00365
:1030A0000369C26893429CBF80681B18013B981A51
:1030B00070472DE9F843D0E902940546A9EB0408CE
:1030C0004068904520440F46144404D900F0BCFBEE
:1030D000EC60BDE8F8834246A4EB090400F0B4FBC1
:1030E0006868224607EB0801F0E72DE9F843C56858
:1030F0000646894617464FF000083469B368706881
:10310000A54228BFE418013C621B5C1BBC4228BFDF
:103110003C46944228BF144649462844224600F0C3
:1031200093FBB3682544AB4208BF00253F1BA04476
:10313000A144F560E1D14046BDE8F88310B5114CDB
:10314000114AA2610223C4E90433104BE361A26473
:103150004FF400730E4A0F492362E26400231022E9
:10316000E01DA3626362E362A3656365E3652265B4
:1031700000F093FB0849204600F08FFB2023A37149
:1031800010BD00BF700700200C420000F8070020AF
:10319000E8070020154200001942000070B5164BE8
:1031A000182400FB04451D4404FB00331646DC6A6A
:1031B000012C0ED0022C18D0E4B92846FFF770FF7E
:1031C000864204D832462846FFF773FF344620462D
:1031D00070BD2846FFF764FF8642344628BF044688
:1031E00022462846FFF765FFF1E72846BDE8704014
:1031F000FFF77BBF0024EAE77007002070B50B4B98
:103200001B7804460D4616460BB9FFF797FF0020C2
:10321000FDF712FE324629462046FFF7BFFF04465F
:103220000020FDF70BFE204670BD00BF7007002098
:10323000FFF784BF0FB410B5A2B024AB802153F8C0
:10324000042B019302A800F0EFFA802804460ADD5F
:10325000802202A90020FFF7D1FF204622B0BDE85E
:10326000104004B070470028F7DD0246F1E7000087
:1032700030B591EA030F00F18480841A71EB030CDE
:1032800005D2121953EB0C03001B71EB0C0140F239
:10329000000CCFF6E07C1CEA430F54D0BCEB410F8E
:1032A00061D90C0DA4EB135E31EA0C0141F48011DD
:1032B00033EA0C0343F48013DEF1200C2AD303FA23
:1032C0000CF5401941F1000122FA0EF5401923FADC
:1032D0000EF5694112FA0CF2CD0208D349085FEAF3
:1032E00030005FEA320228BF42F001020134013CA3
:1032F0005FEA500C72F1004250F1000051EB0451B2
:103300004FF4001313EB410F38BF30BD090D090511
:10331000002030BDBEF1200EBEF1200F1ED223FAD8
:103320000EF5401941F10001CEF1200C124218BFF8
:10333000012203FA0CF52A43CEE711EA5C0F04BF21
:103340000020002130BD1CEA410F04BF01F0004104
:10335000002030BD01F00041002030BD21F480117B
:1033600001EB045130BD004218BF41F00101BCEB3C
:10337000410F08BF30BD4FF0FE4141F478010020FD
:1033800030BD83F00043841A71EB030E07D28EF038
:10339000004E001B71EB0E01121953EB0E0340F2AD
:1033A000000CCFF6E07C1CEA430FC6D0BCEB410F0B
:1033B00072D90C0DA4EB135EC90241EA5051C00250
:1033C00041F00041DB0243EA5253D20243F0004392
:1033D000DEF1200C41D312FA0CF522FA0EF203FAB8
:1033E0000CF542EA050218BF42F0010223FA0EF37F
:1033F000801A9941E30AC4F30A0411F0404F03D440
:1034000018D0013C40004941013C23D44205C00A88
:1034100040EA4150C90A51EAC3715FEA500C72F1A7
:10342000004250F1000051EB045130BD01002FD09B
:103430000020203C0029F9D0B1FA81FCDCF1200EFB
:1034400011FA0CF130FA0EF510FA0CF02943A4EB46
:103450000C04D9E70020D90730BDAEF1200EBEF133
:10346000200F0DD2CEF1200C03FA0CF533FA0EF337
:103470002A4318BF43F00103C01A61F10001B9E704
:1034800021F00041C00A40EA4150C90A01EB045151
:1034900030BD0020002130BD004218BF41F00101C5
:1034A000BCEB410F7FF467AFBCEB430F3FF463AF5E
:1034B00030BD00BFF0B540F2FF7681EA030C16EA9A
:1034C000115E1EBFB64516EA1355B5425AD021EA21
:1034D000465141F48011A1FB024723EA465343F4CD
:1034E0008013AE44A0FB03650CF0004C36197D41FF
:1034F000A1FB034747F10003A0FB0217F619654142
:1035000053F10003094218BF46F0010640F2FE7471
:10351000B3F5007F13D2AEF5806EA6452BD24CEAF0
:103520000331280341EA155140EA16503203450899
:1035300072F1004250F1000051EB0E51F0BDAEF2BD
:10354000FF3EA64517D24CEAC321E80241EA555195
:1035500040EA5650F202450872F1004250F1000074
:1035600051EB0E51F0BD0CF0004141F0FE4141F431
:1035700070010020F0BD1EEA0E0FF4D50CF00041E2
:103580000020F0BD16EA115F04BF01F000410020E9
:10359000004218BF41F0010116EA135F04BF03F0B7
:1035A00000430022124218BF43F0010306EA1354FD
:1035B000B44218BF9EEA060F03D00CF00041002071
:1035C000F0BD21F0004123F00043B1EB065F06D8C7
:1035D000B3EB065F03D8002918BF002BC3D140F21C
:1035E0000001C7F6F8710020F0BD00BF80B110F0F7
:1035F000004248BFD0F10000120D02F21D42B0FAA5
:1036000080F18840521AC30A400503EB025170470B
:103610000100704701F000428B1AA3F16051B1F52F
:10362000801F0ADBB1F17F6F09D242EAC102C100FB
:1036300071F1004142EB507070471046704701280D
:103640005B4113F5001F04D842F0FE4040F4000037
:103650007047C90041EA507040EA020040F480001F
:1036600040F08040704700BF7F2805D8034A044BD4
:10367000105C5B5C18407047002070472C420000D3
:10368000AC420000A0F16103192B98BF20387047AD
:10369000A0F14103192B98BF203070477F299ABFB2
:1036A000017001206FF02E00704700BF5AB10A78F8
:1036B0007F2A0AD800B102600021501AC3E9001124
:1036C00018BF01207047104670476FF02E007047FA
:1036D000A0F16103192B98BF20387047A0F1410376
:1036E000192B98BF203070477F2805D8034A044B18
:1036F000105C5B5C18407047002070472C42000053
:10370000AC42000038B585680446084645B12268D9
:103710006168531C8B4208BF00208A420AD2A85419
:10372000E26823682AB161688B4202D22146904741
:1037300023680133236038BD70B54D1E22D4136851
:103740001446C6B20EE0D0542368E2682AB161681C
:10375000994202D9214690472368013D01336A1CF2
:1037600023600FD0A26872B1616803F1010C8C452F
:1037700014BF304600209942E5D8013D63466A1CDB
:103780002360EFD170BD3046DFE700BFC3062BD406
:1037900010F4007F70B514BF302620264D1E22D4B1
:1037A00013681446F6B20EE0D0542368E2682AB1DA
:1037B0006168994202D9214690472368013D01334F
:1037C0006A1C23600FD0A2687AB1616803F1010C12
:1037D0008C4514BF304600209942E5D8013D634630
:1037E0006A1C2360EFD170BD70473046DEE700BF32
:1037F000024B5B689B6809211B6818472800002062
:10380000027862B169B100EB010C034601E0634547
:1038100003D013F8011F0029F9D1181A7047104678
:1038200070470846704700BF30B5944685B0002504
:10383000CDE902050C461A4661466846019400F03F
:103840007FF805B030BD00BF844640EA010313F0A5
:10385000030F18D18446202A0BD32DE9F007B1E8D5
:10386000F807A0E8F807A2F12002202AF7D2BDE865
:10387000F007042A07D351F8043B40F8043BA2F1B7
:103880000402042AF7D2002A05D011F8013B00F8FF
:10389000013B013AF9D160467047024610F0030F30
:1038A00016D111F0030F13D12DE9F0004FF00137BD
:1038B0004FF0803351F8044BA4EB070525EA0405CB
:1038C0001D4002D142F8044BF4E7A1F10401F0BC21
:1038D00011F8013B02F8013B002BF9D1704700F1D0
:1038E000010110F0030F11D010F8012B002A23D092
:1038F00010F0030F0AD010F8012B002A1CD010F092
:10390000030F03D010F8012B002A15D02DE9700009
:103910004FF001324FF0803350F8044BA4EB020516
:1039200025EA04051D4000D1F6E7A0F1040070BCB3
:1039300010F8012B002AFBD1A0EB0100704700001A
:103940002DE9F04F00230C46036089B014F8011BE9
:1039500003920746002900F0E582DFF8DC9507E0D6
:103960003846FFF7CFFE14F8011B002900F05881FC
:103970002529F5D12246002612F8010B302800F245
:103980009E801F280ED9A0F12003102B0AD8DFE853
:1039900003F0AC0909A8090909A4090909A0099CAF
:1039A00009098D002A2840F0FC80039B10781D68CF
:1039B0000433002D0393BCBF6D4246F01006A21CD9
:1039C0002E2800F004810021742800F092807A28CB
:1039D00000F08F806C2800F032814C2800F0358197
:1039E000682800F0BE811446002800F08880A0F10D
:1039F0002503DAB2532A00F22B81532B00F22881DF
:103A0000DFE813F0EB01260126012601260126013D
:103A1000260126012601260126012601260126016E
:103A2000260126012601260126012601260126015E
:103A3000260126012601260126012601260126014E
:103A4000260126012601260126012601260126013E
:103A5000260126012601260126012601260126012E
:103A600026012601260126012601820026012601C3
:103A7000260126012601260126012601260126010E
:103A8000D601F6002601260126012601F6002601B0
:103A900026012601260150024802130226012601B2
:103AA000ED012601CB0126012601840046F40076B3
:103AB0001446224612F8010B30287FF662AF5E28CA
:103AC0006FD146F480561446F3E746F010061446CC
:103AD000EFE746F020061446EBE746F400461446AE
:103AE000E7E746F080061446E3E746F04006144652
:103AF000DFE7144614F8010B00287FF478AF4FF08D
:103B0000FF3009B0BDE8F08F46F4005616F0800A89
:103B100006D043F2780A43F25803782818BF9A4631
:103B200016F4807307BF06F48042B04626F400788E
:103B300006F48042002A61D1039A18F0040F02F1C2
:103B400004060396126800F0A08092B2002B65D0A4
:103B500028F400785838202800F29D80DFE810F023
:103B600073019B009B009B009B009B009B009B00A4
:103B70009B009B009B009B00D4009B009B009B0034
:103B80009B00D4009B009B009B009B009B000901B5
:103B900073019B009B009B009B00D4009B009B003B
:103BA0007301A0F13004E3B2092B4FF000053FF69A
:103BB00007AF12F8010B05EB850504EB4505A0F1F5
:103BC0003004E3B2092BF4D92E287FF4FCAE107830
:103BD0002A2840F07781039B50781968941C04339D
:103BE000002903932246FFF6EFAE46F48076EBE61B
:103BF00046F4804806F480734FF0000A039A18F0E8
:103C0000040F02F104060396126830D012B2002AA3
:103C100031DA52424FF02D0A002B99D1012199E758
:103C20003868BB68002B3FF46CAF7A6882427FF63D
:103C300068AF00221A54386809B0BDE8F08F144606
:103C400046F0010614F8010BCEE646F001061446D4
:103C5000B54BD3F80080B8F1000F3FF484AE00916B
:103C600003A901912B4632463946C0477BE618F03E
:103C7000080FCCD0D2B218F0200F40F03E8118F0DF
:103C8000400F18BF4FF0200A60E718F0080F3FF40C
:103C90005DAFD2B25AE74FF0FF36002321EAE17B55
:103CA000A5EB0B05BAF1FF0FA5EB030540F204816C
:103CB000CAF307213846023DFFF724FD5FFA8AF177
:103CC0003846FFF71FFD40463A462946FFF75EFD9E
:103CD0003A4659463020FFF72FFD731C0AD00136B3
:103CE0000DF1140A564416F8011D3846FFF70AFD77
:103CF000B245F8D118F0100F3FF435AE29463A46D8
:103D00002020FFF719FD2EE61046002A00F006815C
:103D100008F4004C624600238C464FF02C0E1146EE
:103D200003F0030209B1032A14D01E46A9FB003296
:103D3000D20802EB820306F1200BA0EB4303EB4415
:103D4000303309280BF80C3C06F1010340F2D28015
:103D50001046E5E703F120026A445E1C02F80CEC11
:103D6000E4E71078682800F0D480541C46F004067C
:103D70003AE61046002A00F0D1800DF1140C002321
:103D800002F007023032C0080CF8012B1E46024632
:103D900001330028F4D1C91A80E716F4807300F0CB
:103DA000AF8026F4007806F480424FF0000AC1E6A6
:103DB000039B013D191D93F8008003913A46294663
:103DC0003046FFF7E3FC41463846FFF79BFCB3461D
:103DD0001BF0100F3FF4C7AD90E72521C0E5039B12
:103DE000524A181D0390D3F800A0BAF1000F08BF83
:103DF0009246F205D04626F4007B504640F185807D
:103E0000FFF7FEFC0646AD1B3A4629465846FFF72B
:103E1000BDFC002EDCD018F8011B3846FFF772FC01
:103E2000AAEB0803F342F6D1D2E7039B1A1D0392D3
:103E300016F0800F1A6846F480780CBF4FF0000A25
:103E40004FF0230A08211046002A67D008F4005CCE
:103E5000634605AA8C460026A346194609E0344B62
:103E6000000913F80E3002F8013B06F101030DD0F2
:103E70001E4600F00F0E0029F1D12E4C000914F857
:103E80000E3002F8013B06F10103F1D161465C46B8
:103E9000C91A03E716F0800F0CBF4FF0000A4FF06D
:103EA000300A3DE6039B3A68191D03911B683107F0
:103EB0004CBF1A701A6056E5BAF1000F3FF403AF19
:103EC000013DFBE6A0F13004E3B2092B02F101024F
:103ED0004FF000013FF689AE12F8010B01EB8101B2
:103EE00004EB4101A0F13004E3B2092BF4D946F40C
:103EF000807669E56146C91AD0E64FF02B0A25E6BF
:103F000006F48042B0469A4614E6FFF7E8FC0646FF
:103F100079E7507846F00806941C65E513464FF0A3
:103F2000FF36BBE608467CE6F80900208044000026
:0C3F30007044000060440000CDCCCCCCFC
:103F3C0056410000000000002F410000000000006E
:103F4C002941000000000000354100000000000085
:103F5C005A410000000000005F410000000000001A
:083F6C00B93F0000000003034F
:103F7400C840000000000000A14000000000002034
:103F8400F440000000000000904000000800002001
:103F94003C000020040100200C010020440000200B
:043FA4001800000001
:103FA8004261636B656E647320666C7573686564E3
:103FB80000617070000000002C0500207F000000E8
:103FC800AC0500201B5B313B33316D0025734C6F12
:103FD80067732064726F70706564202825642925D2
:103FE800730D0A001B5B306D002573003C25733E82
:103FF8002025733A20002025303278002020200028
:104008007C002563001B5B313B33306D001B5B314B
:104018003B33326D001B5B313B33336D001B5B312F
:104028003B33346D001B5B313B33356D001B5B311B
:104038003B33366D001B5B313B33376D0077617264
:104048006E696E6700696E666F0064656275670009
:10405800EC3F00000D400000CC3F00001540000080
:104068001D400000254000002D40000035400000A4
:104078003D400000000000000641000045400000EF
:104088004D40000052400000756172745F6C6F67AC
:104098005F6261636B656E64007274745F6C6F67F6
:1040A8005F6261636B656E640000000000000000E1
:1040B80000000000000000000338FDD87047000031
:1040C800690B0000D50B0000650B0000FFFFFFFF28
:1040D800FFFFFFFFFFFFFFFFFFFFFFFF00000000E4
:1040E800000000000000D60106010000F90C0000E5
:1040F8005D0D0000A90C0000466174616C206572BA
:10410800726F720053797374656D2072657365748C
:10411800003031323334353637383941424344453B
:104128004654494D45520053414144430054574970
:104138004D000000811B0000911B000000000000E2
:1041480000000000000000000338FDD870475052FE
:104158005300554152540055415254450025640AB4
:10416800005374617274696E672074686520707298
:104178006F6772616D00545749206465766963659D
:104188002064657465637465642061742061646487
:104198007265737320307825782E004E6F20646521
:1041A800766963652077617320666F756E642E008B
:1041B80000000000020000030000000000020000F0
:1041C800040000000000030600000000008000401A
:1041D80000040000020006000338FDD87047000004
:1041E8000000000000300040000000000100000056
:1041F80000000101010000000101000000000101B0
:10420800000000005465726D696E616C0052545470
:10421800005345474745520043000000504F53495B
:104228005800000020202020202020202068282856
:104238002828202020202020202020202020202066
:1042480020202020481010101010101010101010EE
:1042580010101010848484848484848484841010CE
:1042680010101010108181818181810101010101EB
:104278000101010101010101010101010101011017
:1042880010101010108282828282820202020202C0
:1042980002020202020202020202020202020210E8
:1042A80010101020000703200417020108571040BF
:1042B8008000000020420000244300003844000031
:1042C80053756E004D6F6E00547565005765640038
:1042D800546875004672690053617400000000005C
:1042E8004A616E00466562004D617200417072005D
:1042F8004D6179004A756E004A756C00417567001A
:10430800536570004F6374004E6F76004465630018
:1043180000000000414D00504D0000005C440000CA
:104328005844000058440000584400005844000015
:104338005844000058440000584400005844000005
:1043480058440000FFFFFFFFFFFFFFFFFFFFFFFFD5
:10435800FFFF000098430000C8420000D44300005B
:10436800E84200001C4300007C4300002C4400008D
:1043780088430000256D2F25642F25790000000053
:104388002561202562202565202554202559000017
:1043980053756E646179004D6F6E64617900547570
:1043A8006573646179005765646E6573646179004B
:1043B8005468757273646179004672696461790042
:1043C8005361747572646179000000004A616E750A
:1043D800617279004665627275617279004D617229
:1043E800636800417072696C004D6179004A756EAE
:1043F80065004A756C79004175677573740053657B
:104408007074656D626572004F63746F62657200E7
:104418004E6F76656D62657200446563656D6265B1
:104428007200000025483A254D3A25530000000047
:10443800693600008536000091360000E936000034
:10444800D1360000DD3600009D360000AD36000094
:10445800000000002E00000030313233343536378A
:1044680038396162636465663031323334353637E2
:104478003839414243444546286E756C6C29000022
:1044880000000000FF00000000000000FF00000026
:104498000000000000200040000000000020004054
:1044A800000000000090D003BC420000BC420000A5
:0C44B800BC420000BC420000BC420000FE
:040000030000037581
:00000001FF
